:020000040800F2
:1000000020110020E50B0008250300082703000845
:100010002B0300082F030008330300080000000032
:10002000000000000000000000000000370300088E
:1000300039030008000000003B0300083D030008EE
:10004000FF0B0008FF0B0008FF0B0008FF0B000868
:10005000FF0B0008FF0B0008FF0B0008FF0B000858
:10006000FF0B0008FF0B0008FF0B0008FF0B000848
:10007000FF0B0008FF0B0008FF0B0008FF0B000838
:10008000FF0B0008FF0B0008FF0B0008FF0B000828
:10009000FF0B0008FF0B0008FF0B0008FF0B000818
:1000A000FF0B0008FF0B0008FF0B0008FF0B000808
:1000B000FF0B0008FF0B0008FF0B0008FF0B0008F8
:1000C000FF0B0008FF0B0008FF0B0008FF0B0008E8
:1000D000FF0B0008590B0008FF0B0008FF0B00087E
:1000E000FF0B0008FF0B0008FF0B0008FF0B0008C8
:1000F000FF0B0008FF0B0008FF0B0008FF0B0008B8
:10010000FF0B0008FF0B0008FF0B0008FF0B0008A7
:10011000FF0B0008FF0B0008FF0B0008FF0B000897
:10012000FF0B0008FF0B0008FF0B0008FF0B000887
:1001300000F002F800F05EF80AA090E8000C82449B
:100140008344AAF10107DA4501D100F053F8AFF278
:10015000090EBAE80F0013F0010F18BFFB1A43F0A5
:1001600001031847201F0000401F000010F8013B4A
:100170000A4413F0030408BF10F8014B1D1108BF17
:1001800010F8015B641E05D010F8016B641E01F8C5
:10019000016BF9D1002D15D010F8014B03F00C03C1
:1001A0000C2BA1EB04040ABF10F8013BA4EB831451
:1001B000A4EB032405F1010314F8016B5B1E01F8A5
:1001C000016BF9D5914238BF10F8013BD1D370478C
:1001D0000023002400250026103A28BF78C1FBD850
:1001E000520728BF30C148BF0B6070471FB51FBD05
:1001F00010B510BD01F00BFB1146FFF7F7FF00F043
:1002000009F801F029FB03B4FFF7F2FF03BC00F08B
:1002100049FC000008B500F0D7FB00F03DFC00F001
:100220000FFB00F0E4F9202467E000F0E0F9002281
:100230001146104600F098FA01220021122000F029
:1002400093FA02220021242000F08EFA03220021DA
:10025000362000F089FA04220021482000F084FAB8
:10026000052200215A2000F07FFA062200216C208E
:1002700000F07AFA21A20321002000F05AFA23A20A
:100280000621002000F055FA22A206213F2000F0AE
:1002900050FA22460621302000F0C9F9601CC4B291
:1002A0007E2C00DD2024102003232246062100900E
:1002B000672000F0FCF94FF4FA5000F0C1FB00F0A9
:1002C00096F94FF4FA5000F0BBFB14480823802243
:1002D00000210090084600F078FA4FF4FA5000F040
:1002E000AFFB0F480823802200210090084600F051
:1002F0006CFA4FF4FA5000F0A3FB96E7312E332747
:10030000204F4C4544205445535400004153434929
:10031000493A0000434F44453A00000000000020E5
:1003200000040020704700BFFEE700BFFEE700BFEB
:10033000FEE700BFFEE77047704770477047000058
:100340000CB50020019000906B48006840F48030AC
:100350006949086000BF6848006800F400300090F8
:100360000198401C0190009818B90198B0F5A06F51
:10037000F1D16148006810F4003F02D001200090E4
:1003800001E0002000900098012842D15B480068FD
:1003900040F01000594908600846006820F003004A
:1003A00008600846006840F0020008605248406853
:1003B000514948600846406848600846406840F433
:1003C000806048600846406820F47C104860084619
:1003D000406840F4E81048600846006840F08070CB
:1003E000086000BF4448006810F0007FFAD042481F
:1003F000406820F00300404948600846406840F0EB
:100400000200486000BF3C48406800F00C0008282B
:10041000F9D10CBD10B5FFF793FF10BD10B53648EC
:10042000006840F0010034490860084640683449DB
:1004300008403149486008460068324908402E4962
:1004400008600846006820F480200860084640687C
:1004500020F4FE0048604FF41F008860FFF7DAFFC9
:100460004FF000602849086010BD10B50021002041
:100470000022214B5B6803F00C0121B1042906D056
:10048000082928D107E0214B214C236027E01F4B8E
:100490001F4C236023E0184B5B6803F47010164B6D
:1004A0005B6803F48032022303EB904022B9194BBE
:1004B0004343174C23600DE00F4B5B6813F4003F80
:1004C00004D0144B4343124C236003E00F4B4343CF
:1004D0000F4C236003E00D4B0D4C236000BF00BFA9
:1004E000054B5B68C3F303130B4CE15C084B1B68C3
:1004F000CB40074C236010BD00100240002002409A
:100500000000FFF8FFFFF6FE08ED00E000127A00A1
:100510000008002000093D000408002070B50446D2
:100520000E4626B10221FE4800F0F5FC03E0022150
:10053000FB4800F0F2FC1021FA4800F0EEFC002528
:1005400017E02021F74800F0E8FC14F0800F04D0F9
:100550008021F44800F0DFFC03E08021F14800F046
:10056000DCFC2021EF4800F0D6FC6006040E681C7D
:10057000C5B2082DE5DB1021EA4800F0CCFC0221D1
:10058000E74800F0C8FC70BD70B504460D4605F1A3
:10059000B001C8B20021FFF7C1FF102141EA1410D9
:1005A0000021FFF7BBFF04F00F0141F00100002123
:1005B000FFF7B4FF70BD10B500218D20FFF7AEFF2F
:1005C00000211420FFF7AAFF0021AF20FFF7A6FFAC
:1005D00010BD10B500218D20FFF7A0FF00211020D5
:1005E000FFF79CFF0021AE20FFF798FF10BD70B50C
:1005F000002419E004F1B001C8B20021FFF78EFF1A
:1006000000210846FFF78AFF00211020FFF786FF30
:10061000002505E001210020FFF780FF681CC5B21E
:10062000802DF7DB601CC4B2082CE3DB70BD2DE924
:10063000F04107460E46904600250024A8F1200010
:10064000C5B27F2F02DD0027B01CC6B23146384646
:10065000FFF79AFF002408E004EB0511B24A505C52
:100660000121FFF75BFF601CC4B2082CF4DB701C97
:10067000C1B23846FFF788FF002409E004EB0511FA
:100680000831A94A505C0121FFF748FF601CC4B241
:10069000082CF3DBBDE8F08110B50246012000E034
:1006A00050430B00A1F10104E1B2F9D110BD2DE9D5
:1006B000FF5F074691461D460E9E4FF0000A00243C
:1006C00033E0281B401EC1B20A20FFF7E5FFB9FB4B
:1006D000F0F00A21B0FBF1F201FB1208BAF1000FB1
:1006E00013D1681EA04210DDB8F1000F0BD1B34644
:1006F00006EBDB71491001FB0471C8B2202201999D
:10070000FFF795FF0FE04FF0010AB34606EBDB71F0
:10071000491001FB0471C8B208F13001CAB2019955
:10072000FFF785FF00BF601CC4B2AC42C9DBBDE867
:10073000FF9F2DE9F04104460F46154600260EE0C6
:10074000AA5D39462046FFF772FF04F10800C4B2E3
:10075000782C02DD0024B81CC7B2701CC6B2A85D9C
:100760000028EDD1BDE8F0812DE9F04180460E462C
:100770001546002731464046FFF706FF00240AE0F1
:100780006A4A02EB8511085D0121FFF7C7FE781C5C
:10079000C7B2601CC4B2102CF2DB701CC1B2404660
:1007A000FFF7F2FE00240CE06900491C5F4A02EBEF
:1007B0004111085D0121FFF7B1FE781CC7B2601C32
:1007C000C4B2102CF0DBBDE8F0812DE9F05F0646E5
:1007D0000F4690461C46DDF828A04FF0000BE117AD
:1007E00004EB5171C910B4EBC10106D12046E117E9
:1007F00004EB5171C1F3C70506E02046E11704EB95
:100800005171C910491CCDB23D4615E0294630460C
:10081000FFF7BAFEB1460BE059460BF1010B1AF88F
:1008200001000121FFF77AFE09F1010000F0FF0944
:10083000C145F1DB681CC5B2A542E7DBBDE8F09F0E
:1008400008B50121042000F071FDB020ADF80000D2
:1008500010208DF8030003208DF80200694631480E
:1008600000F0AEFAB0212F4800F055FB012108201E
:1008700000F05CFD40F20310ADF8000010208DF890
:10088000030003208DF802006946254800F098FA1D
:1008900040F20311224800F03EFB0121204800F005
:1008A0003AFB642000F0CCF801211D4800F035FB34
:1008B000C82000F0C5F80121194800F02CFB0021E8
:1008C000AE20FFF72BFE00210846FFF727FE002190
:1008D0001020FFF723FE00214020FFF71FFE00211C
:1008E0008120FFF71BFE0021CF20FFF717FE00211C
:1008F000A120FFF713FE0021C820FFF70FFE002103
:10090000A620FFF70BFE0021A820FFF707FE00211D
:100910003F20FFF703FE0021D320FFF7FFFD07E094
:10092000000C014000080140941A0008140800203F
:1009300000210846FFF7F2FD0021D520FFF7EEFD6C
:1009400000218020FFF7EAFD0021D920FFF7E6FD16
:100950000021F120FFF7E2FD0021DA20FFF7DEFDA4
:1009600000211220FFF7DAFD0021DB20FFF7D6FD82
:1009700000214020FFF7D2FD00212020FFF7CEFD0F
:1009800000210220FFF7CAFD00218D20FFF7C6FDE0
:1009900000211420FFF7C2FD0021A420FFF7BEFDB7
:1009A0000021A620FFF7BAFD0021AF20FFF7B6FD1A
:1009B0000021AF20FFF7B2FDFFF719FE0021084626
:1009C000FFF7E2FD08BD000010B56FF0040000F075
:1009D00079F92D4800682D49B0FBF1F02C490870D9
:1009E0000846007800EB4001C1EBC0104FF6FF71E4
:1009F00001EAC0002749088010BD0146244A127848
:100A00004A434FF0E0235A6100229A611A46126964
:100A100042F001021A6100BF4FF0E022106910F0AD
:100A2000010F02D010F4803FF6D04FF0E02212699F
:100A300022F001024FF0E0231A6100229A61704710
:100A40000146144A12884A434FF0E0235A610022BB
:100A50009A611A46126942F001021A6100BF4FF012
:100A6000E022106910F0010F02D010F4803FF6D0A0
:100A70004FF0E022126922F001024FF0E0231A61E8
:100A800000229A61704700000008002000127A00DE
:100A9000D4090020D609002010B54FF4A06000F062
:100AA000C1F810BD014600BF704700BF494A128817
:100AB00012F0400FFAD0C2B2464B1B1D1A8070478D
:100AC00010B586B00446012144F2050000F02EFC6A
:100AD0004FF40070ADF8140003208DF816001820B4
:100AE0008DF8170005A93C4800F06AF94FF48060C2
:100AF000ADF8140004208DF8170005A9364800F061
:100B00005FF925208DF8000003208DF801008DF895
:100B1000020001208DF80300684600F088F8019477
:100B20000020ADF80800ADF80A00ADF80C00ADF8F3
:100B300010000C20ADF80E0001A9264800F0A1FC21
:100B4000012240F22551234800F033FD01212148C4
:100B500000F023FD06B010BD10B540F225511D4830
:100B600000F00CFE10B31B4800F088FDC4B21B4817
:100B7000008810F4004F2BD11848008810F4804FE3
:100B80000CD00A2C03D000201449088020E0134820
:100B9000008840F400401149088019E00D2C06D16E
:100BA0000E48008840F480400C49088010E00B4853
:100BB0000088C0F30D000A490C5408480088401C06
:100BC0000649088008460088C72801DD0020088003
:100BD00010BD00000038014000080140D809002085
:100BE000F40900200948804709480047FEE7FEE76E
:100BF000FEE7FEE7FEE7FEE7FEE7FEE7FEE7FEE7CD
:100C000004480549054A064B704700001D040008CA
:100C100031010008200B002020110020200D0020B1
:100C2000200D002031490143314A1160704770B5F1
:100C3000002100230F22C4780CB32D4C246804F447
:100C4000E064C4F5E064210AC1F10403CA404478B9
:100C500004FA03F18478144021430901254C0678F5
:100C6000A155047804F01F050124AC4005786D11EE
:100C70004FF0E02606EB8505C5F8004109E0047851
:100C800004F01F050124AC401B4D0678761145F891
:100C9000264070BD194A0A400243154B1B1F1A60BB
:100CA000704739B1124A121D12680243104B1B1DC6
:100CB0001A6006E00E4A121D126882430C4B1B1D7F
:100CC0001A607047042808D14FF0E021096941F00B
:100CD00004014FF0E022116107E04FF0E0210969C3
:100CE00021F004014FF0E022116170470000FA0585
:100CF0000CED00E000E400E080E100E080FFFF1F79
:100D000010B50446CA48844208D10121042000F0ED
:100D100027FB0021042000F023FB46E0C548844265
:100D200008D10121082000F01BFB0021082000F061
:100D300017FB3AE0C048844208D10121102000F09E
:100D40000FFB0021102000F00BFB2EE0BB4884427B
:100D500008D10121202000F003FB0021202000F019
:100D6000FFFA22E0B648844208D10121402000F079
:100D7000F7FA0021402000F0F3FA16E0B14884426F
:100D800008D10121802000F0EBFA0021802000F042
:100D9000E7FA0AE0AC48844207D10121801500F04F
:100DA000DFFA0021A01500F0DBFA10BD10B501211B
:100DB000084600F0D5FA0021012000F0D1FA10BD5C
:100DC0002DE9F041024600250026002000230024E2
:100DD000002791F803C00CF00F0591F803C01CF038
:100DE000100F03D091F802C04CEA050591F800C03D
:100DF000BCF1000F31D0146800202BE04FF0010C43
:100E00000CFA00F3B1F800C00CEA03069E4220D1B0
:100E100083004FF00F0C0CFA03F7BC4305FA03FCF8
:100E20004CEA040491F803C0BCF1280F06D14FF03E
:100E3000010C0CFA00FCC2F814C00AE091F803C0DF
:100E4000BCF1480F05D14FF0010C0CFA00FCC2F8C0
:100E500010C0401C0828D1D31460B1F800C0BCF108
:100E6000FF0F34DD546800202EE000F1080C4FF035
:100E7000010808FA0CF3B1F800C00CEA03069E4220
:100E800021D183004FF00F0C0CFA03F7BC4305FA95
:100E900003FC4CEA040491F803C0BCF1280F05D10F
:100EA00000F1080C08FA0CF8C2F8148091F803C09D
:100EB000BCF1480F07D100F1080C4FF0010808FA07
:100EC0000CF8C2F81080401C0828CED35460BDE84E
:100ED000F0814FF6FF710180022181700421C17001
:100EE00070470246002093680B4201D0012000E0C9
:100EF000002070470146886880B270470246002093
:100F0000D3680B4201D0012000E000207047014669
:100F1000C86880B2704701617047416170470AB18B
:100F2000016100E041617047C16070474FF4803259
:100F30000A438261816182618269826970470246E7
:100F40000020424B18684FF68073184040EA0210A8
:100F500008433E4B186070473D49C8617047F0B583
:100F60000A46002300240021002500F00046B6F1C7
:100F7000004F02D1354EF16901E0344E7168C0F383
:100F8000034583B200F44016B6F5401F08D121F0A6
:100F900070612E4E766826F070662C4F7E6012E0EF
:100FA00000F48016B6F5801F06D1032606FA05F474
:100FB000A14341F0706106E0460D360103FA06F6E2
:100FC000B14341F0706122B1460D360103FA06F6D5
:100FD000314300F00046B6F1004F02D11B4EF161E3
:100FE00001E01A4E7160F0BD30B500228B071C0F76
:100FF0000F2303FA04F2154B08338C1053F82430F6
:101000009343124C08348D1044F8253023468C103D
:1010100053F824308C07240F00FA04F423430B4CBC
:1010200008348D1044F8253030BD0A4908607047F7
:1010300000080140000C0140001001400014014074
:1010400000180140001C0140002001400000014048
:1010500000002042DC002042DD48006840F0010032
:10106000DB49086008464068DA490840D8494860CA
:1010700008460068D8490840D54908600846006815
:1010800020F4802008600846406820F4FE00486094
:101090004FF41F0088607047CD49096821F4803102
:1010A000CB4A11601146096821F480211160B0F526
:1010B000803F03D0B0F5802F0ED106E0C449096807
:1010C00041F48031C24A116007E0C149096841F426
:1010D000A021BF4A116000E000BF00BF704710B5FB
:1010E00001460022002300204A11012A02D1B84CF7
:1010F000236806E0022A02D1B54C236A01E0B44C11
:10110000636A01F01F02012494401C4201D00120B7
:1011100000E0002010BD38B500200090002400251C
:1011200000BF3120FFF7DBFF05460098401C009010
:101130000098B0F5A06F01D0002DF2D03120FFF75C
:10114000CEFF08B1012400E00024204638BD01464E
:1011500000209F4A106820F0F80040EAC1001060AB
:1011600070479E490860704702460020984B5868B7
:1011700020F47C1042EA01031843954B58607047F5
:1011800096490866704701460020914A506820F051
:1011900003000843506070478D48406800F00C0021
:1011A0007047014600208A4A506820F0F00008434A
:1011B0005060704701460020854A506820F4E06086
:1011C00008435060704701460020814A506820F46F
:1011D000605040EAC1005060704729B17C4A527AA1
:1011E00002437B4B5A7204E0794A527A8243784B2D
:1011F0005A7270477A490860704701460020744A65
:10120000506820F440400843506070470021754A00
:1012100011706F4A82F82010012802D0042808D1EA
:1012200003E001216F4A117004E005216D4A11703D
:1012300000E000BF00BF70476B4908607047644919
:10124000096A0143624A116270476749443908607C
:10125000704730B500210022002400235C4D6D68EA
:1012600005F00C0121B1042905D0082923D105E09E
:101270005E4D056022E05D4D05601FE0544D6D68D8
:1012800005F47012524D6D6805F48034022505EBAB
:1012900092421CB9564D554305600BE04C4D6D68AC
:1012A00015F4003F03D0524D5543056002E04F4D09
:1012B0005543056002E04D4D056000BF00BF444D41
:1012C0006D6805F0F00109094A4D6B5C0568DD4069
:1012D00045603F4D6D6805F4E061090A454D6B5C62
:1012E0004568DD4085603A4D6D6805F46051C90A76
:1012F000404D6B5C4568DD40C560354D6D6805F45B
:101300004041890B3C4D6B5CC568B5FBF3F505614D
:1013100030BD29B12E4A526902432D4B5A6104E077
:101320002B4A526982432A4B5A61704729B1284A95
:1013300092690243264B9A6104E0254A92698243EE
:10134000234B9A61704729B1214AD2690243204B4D
:10135000DA6104E01E4AD26982431D4BDA617047AC
:1013600029B11B4AD2680243194BDA6004E0184ADB
:10137000D2688243164BDA60704729B1144A126969
:101380000243134B1A6104E0114A12698243104B65
:101390001A61704714494039086070470F49C864A2
:1013A00070470B49C87170470948406A40F0807027
:1013B00007494862704701460020054A92680A4280
:1013C00001D0012000E00020704701498872704779
:1013D000001002400000FFF8FFFFF6FE000042424E
:1013E000D8004242201002408004424200127A009B
:1013F00000093D00E0090020F009002010B5044676
:10140000FB48844209D101218803FFF7A9FF00218D
:101410004FF48040FFF7A4FF32E0F648844209D140
:1014200001214804FFF7A9FF00214FF40030FFF726
:10143000A4FF25E0F048844209D101218804FFF788
:101440009CFF00214FF48020FFF797FF18E0EB4846
:10145000844209D10121C804FFF78FFF00214FF416
:101460000020FFF78AFF0BE0E548844208D1012104
:101470000805FFF782FF00214FF48010FFF77DFF82
:1014800010BD2DE9F04786B005460E460024A24661
:1014900000BFA1460027B08900B100BF2F462C8AAB
:1014A0004CF6FF700440F08804432C82AC894EF661
:1014B000F3100440B088318908437189084304431C
:1014C000AC81AC8A4FF6FF400440B0890443AC8243
:1014D00001A8FFF7BEFEC648874202D1DDF810A082
:1014E00001E0DDF80CA0A88910F4004F08D00AEB49
:1014F000CA0000EB0A1031684900B0FBF1F807E0C0
:101500000AEBCA0000EB0A1031688900B0FBF1F861
:101510006420B8FBF0F004012009642101FB10896C
:10152000A88910F4004F08D0322000EBC900B0FBAE
:10153000F1F000F00700044308E0322000EB09104E
:101540006421B0FBF1F000F00F0004432C8106B0E1
:10155000BDE8F0874FF41651016000218180C18001
:1015600001810C21418100218181704710B5024623
:101570000020108A4FF2FF0318400B884C88234349
:101580008C882343CC8823431843108210BD00214C
:10159000018041808180C180704721B1828942F4FD
:1015A0000052828104E082894DF6FF731A408281E5
:1015B0007047F0B503460024002600250020A1F561
:1015C00010676A3F00D100BF1846C1F3421401F012
:1015D0001F06012707FA06F5012C01D10C3004E0A3
:1015E000022C01D1103000E014301AB107682F43EB
:1015F000076002E00768AF430760F0BD1AB1838A55
:101600000B43838202E0838A8B4383827047028A82
:101610004FF6F0731A400282028A0A430282704730
:1016200082894FF2FF731A40828182890A43828144
:10163000704721B1828942F00202828104E08289EE
:101640004FF6FD731A4082817047028A4FF6DF73AE
:101650001A400282028A0A430282704721B1028A3A
:1016600042F48042028204E0028A4BF6FF731A4081
:1016700002827047C1F30802828070470146888861
:10168000C0F308007047818941F0010181817047F2
:10169000028BD2B20283028B42EA0122028370479C
:1016A000028B02F47F420283028B0A43028370475B
:1016B00021B1828A42F02002828204E0828A4FF6BF
:1016C000DF731A408282704721B1828A42F0100291
:1016D000828204E0828A4FF6EF731A40828270475A
:1016E00021B1828A42F00802828204E0828A4FF6A7
:1016F000F7731A408282704721B1828942F4004216
:10170000828103E08289C2F30E028281704721B197
:10171000828A42F40062828204E0828A4FF2FF737E
:101720001A4082827047828A4FF6FB731A40828287
:10173000828A0A438282704721B1828A42F0020281
:10174000828204E0828A4FF6FD731A4082827047DB
:1017500002460020B1F5007F00D100BF13880B4284
:1017600001D0012000E00020704701F40072B2F5C2
:10177000007F00D100BFCA430280704770B50246A7
:101780000024002300250020A1F510666A3E00D148
:1017900000BFC1F3421501F01F03012606FA03F34F
:1017A000012D02D19689334006E0022D02D1168A1E
:1017B000334001E0968A33400C12012606FA04F405
:1017C0001688344013B10CB1012000E0002070BD38
:1017D00010B500220023A1F510646A3C00D100BFBF
:1017E0000A1201249440A3B2DC43048010BD00001F
:1017F000003801400044004000480040004C0040D8
:1018000000500040704770477047704770477546FA
:1018100000F028F8AE4605006946534620F0070060
:10182000854618B020B5FFF7EBF9BDE820404FF032
:1018300000064FF000074FF000084FF0000B21F0BA
:101840000701AC46ACE8C009ACE8C009ACE8C00987
:10185000ACE8C0098D4670470446AFF300802046CF
:10186000FEF7D1FC00487047BC0A002000000000D1
:1018700000000000002F0000000007000700001417
:101880007F147F1400242A7F2A1200626408132325
:1018900000364955225000000503000000001C22BC
:1018A0004100000041221C000014083E08140008FA
:1018B000083E0808000000A06000000808080808AA
:1018C000000060600000002010080402003E514942
:1018D000453E0000427F40000042615149460021E0
:1018E00041454B31001814127F10002745454539FA
:1018F000003C4A4949300001710905030036494955
:10190000493600064949291E00003636000000000D
:101910005636000000081422410000141414141458
:101920000000412214080002015109060032495901
:10193000513E007C1211127C007F49494936003E1D
:1019400041414122007F4141221C007F49494941D8
:10195000007F09090901003E4149497A007F0808D2
:10196000087F0000417F4100002040413F01007F8F
:1019700008142241007F40404040007F020C027F5B
:10198000007F0408107F003E4141413E007F09096D
:101990000906003E4151215E007F09192946004693
:1019A000494949310001017F0101003F4040403F6A
:1019B000001F2040201F003F4038403F00631408B4
:1019C000146300070870080700615149454300008F
:1019D0007F41410000552A552A55000041417F00B2
:1019E00000040201020400404040404000000102A7
:1019F0000400002054545478007F48444438003890
:101A00004444442000384444487F00385454541817
:101A100000087E0901020018A4A4A47C007F080429
:101A200004780000447D4000004080847D00007FF9
:101A3000102844000000417F4000007C0418047816
:101A4000007C0804047800384444443800FC242412
:101A500024180018242418FC007C080404080048FA
:101A60005454542000043F444020003C4040207C1B
:101A7000001C2040201C003C4030403C004428100A
:101A80002844001CA0A0A07C004464544C441414BE
:101A900014141414000000000000000000000000F6
:101AA00000000000000000F800000000000000330B
:101AB0003000000000100C06100C060000000000B2
:101AC0000000000040C07840C0784000043F04049B
:101AD0003F040400007088FC08300000001820FF5C
:101AE000211E0000F008F000E018000000211C0397
:101AF0001E211E0000F00888700000001E21232413
:101B00001927211010160E00000000000000000030
:101B100000000000000000E01804020000000007C0
:101B20001820400000020418E000000000402018C7
:101B300007000000404080F0804040000202010F9A
:101B400001020200000000F0000000000101011F7E
:101B500001010100000000000000000080B07000E2
:101B60000000000000000000000000000001010172
:101B70000101010100000000000000000030300001
:101B800000000000000000008060180400601806DB
:101B90000100000000E010080810E000000F102015
:101BA00020100F00001010F8000000000020203F5F
:101BB00020200000007008080888700000302824E9
:101BC000222130000030088888483000001820208A
:101BD00020110E000000C02010F8000000070424AF
:101BE000243F240000F808888808080000192120F4
:101BF00020110E0000E0108888180000000F11204E
:101C000020110E0000380808C83808000000003F06
:101C1000000000000070880808887000001C222165
:101C200021221C0000E010080810E0000000312212
:101C300022110F00000000C0C000000000000030B2
:101C40003000000000000080000000000000806004
:101C50000000000000008040201008000001020485
:101C6000081020004040404040404000040404046C
:101C70000404040000081020408000000020100828
:101C800004020100007048080808F000000000305D
:101C900036010000C030C828E810E00007182724EB
:101CA00023140B000000C038E0000000203C230299
:101CB0000227382008F8888888700000203F2020FC
:101CC00020110E00C030080808083800071820202E
:101CD0002010080008F808080810E000203F202025
:101CE00020100F0008F88888E8081000203F202006
:101CF0002320180008F88888E8081000203F2000FA
:101D000003000000C0300808083800000718202031
:101D1000221E020008F808000008F808203F2101F0
:101D200001213F20000808F8080800000020203F9B
:101D30002020000000000808F8080800C08080800B
:101D40007F00000008F888C028180800203F200104
:101D50002638200008F8080000000000203F20205E
:101D60002020300008F8F800F8F80800203F003F75
:101D7000003F200008F830C00008F808203F20008D
:101D800007183F00E01008080810E0000F1020209E
:101D900020100F0008F808080808F000203F210173
:101DA00001010000E01008080810E0000F182424CA
:101DB00038504F0008F8888888887000203F20003D
:101DC000030C3020007088080808380000382021F3
:101DD00021221C00180808F8080818000000203FFD
:101DE0002000000008F808000008F808001F202064
:101DF00020201F000878880000C838080000073835
:101E00000E010000F80800F80008F800033C070085
:101E1000073C0300081868808068180820302C03ED
:101E2000032C30200838C800C83808000000203FC4
:101E30002000000010080808C838080020382621B3
:101E400020201800000000FE020202000000007FB7
:101E500040404000000C30C00000000000000001C5
:101E60000638C00000020202FE00000000404040B0
:101E70007F000000000004020202040000000000D5
:101E80000000000000000000000000008080808052
:101E9000808080800002020400000000000000003A
:101EA00000000000000080808080000000192422D3
:101EB00022223F2008F8008080000000003F11200F
:101EC00020110E000000008080800000000E112014
:101ED00020201100000000808088F800000E1120F2
:101EE00020103F200000808080800000001F222200
:101EF00022221300008080F0888888180020203F6C
:101F0000202000000000808080808000006B94947E
:101F10009493600008F8008080800000203F21003A
:101F200000203F2000809898000000000020203F03
:101F300020200000000000809898000000C08080F1
:101F4000807F000008F8000080808000203F24028D
:101F50002D302000000808F8000000000020203F7D
:101F6000202000008080808080808000203F200032
:101F70003F20003F8080008080800000203F2100C3
:101F800000203F200000808080800000001F202073
:101F900020201F00808000808000000080FFA120A2
:101FA00020110E000000008080808000000E1120B3
:101FB00020A0FF80808080008080800020203F2142
:101FC00020000100000080808080800000332424F5
:101FD00024241900008080E0808000000000001FA1
:101FE000202000008080000000808000001F202052
:101FF00020103F20808080000080808000010E3013
:102000000806010080800080008080800F300C0373
:102010000C300F0000808000808080000020312E76
:102020000E312000808080000080808080818E7052
:102030001806010000808080808080000021302C04
:102040002221300000000000807C0202000000001D
:10205000003F404000000000FF00000000000000C2
:10206000FF0000000002027C800000000040403FB2
:10207000000000000006010102020404000000004C
:1020800000000000A420000800000020F409000067
:102090006C01000868230008F40900202C070000E8
:1020A000D001000840120003050911FF118905C382
:1020B00000E000F000F8000100083A4428FF11AAEF
:1020C000440001500B8301384482929274018311C1
:1020D00020087C44FF017D7D7D04410540047D0195
:1020E000FF6E920102613F033B01017E81419149F4
:1020F000F20101011BC230083F3F0303F31311013A
:10210000100601F1116181402005816111F1473311
:10211000414107200401C12120A321C114311931FB
:1021200037040736D33303033F3F426006E0E00045
:10213000007FA8127FBF40040618060A100800009E
:1021400040407F4040A410041F204001A3201F14E2
:102150003300600E6004300C03460534C2100407DF
:10216000070601700904040484444444840780057C
:102170000484C4041501120A71112140073D0707A8
:10218000C9200F0000101814121100000F101010B9
:102190000F0F131F1015600D081012120D000018FC
:1021A00000000D120A51295130015E0152800101D7
:1021B0003B4514047F030CA915DE1C053854545804
:1021C0002503080A2004047800003C40407C2000DD
:1021D000092CFFAAAAAA280800FF68100626494968
:1021E0004932101005020408100F0D6F00049D0104
:1021F000040D9D0004156343F80801240500F81838
:1022000060E82404806018235720202923E010214F
:10221000A310E01449B4313908043C886818630DF0
:1022200015FF037DEA039DFF0371144DFF031D0697
:10223000043D2E040942E91C0640202020C04A0427
:10224000110721EA3E40520452600E811871295153
:10225000070D4769031C060C0A0A090C0004156BDC
:102260002D00042004080F081510050809090E07A1
:102270001D180430050909090F0A512951070DFFDE
:1022800000040D2200047C04A24A041F071C0B0258
:102290000304060708090000F06A052310FF050E75
:1022A00013F091052E0FED052EFF06060A120F2FD3
:1022B000100840405F55555575045B5F4094D950F8
:1022C00024060F09498979B70211201F200800FE52
:1022D00002424ACA4A030C04124202FEF904000CEC
:1022E0001340504C4340404F50505C40FE13F88820
:1022F0000122FF050E13F8DA072E1F9D03227F200F
:1023000003109F80E2338082010C0716E2A2928ABA
:102310008682DF050C041640807F3808040B1424E5
:1023200024A4FEA3220022CC009C1F0806F9083E2C
:102330000131070C0510FF020202EF06257C5390C5
:1023400008C3FE0898070C0F200444827F01808098
:1023500040432C102846817F0625D865DC00050007
:08236000020406080000000061
:0400000508000131BD
:00000001FF
