:020000040800F2
:10000000600A0020190200086B1C0008631C00082D
:10001000671C0008F71A0008A9310008000000005A
:10002000000000000000000000000000593000083F
:10003000FB1A0008000000003730000845310008B6
:1000400033020008330200083302000833020008BC
:1000500033020008330200083302000833020008AC
:10006000330200083302000833020008330200089C
:10007000330200083302000833020008330200088C
:10008000330200083302000833020008330200087C
:10009000330200083302000833020008330200086C
:1000A000330200083302000833020008330200085C
:1000B000330200083302000833020008330200084C
:1000C000330200083302000833020008330200083C
:1000D000330200083302000833020008330200082C
:1000E00033020008330200083302000800F002F86F
:1000F00000F082F80AA090E8000C82448344AAF140
:100100000107DA4501D100F077F8AFF2090EBAE83D
:100110000F0013F0010F18BFFB1A43F0010318473B
:10012000EC520000FC5200000023002400250026B1
:10013000103A28BF78C1FBD8520728BF30C148BF4A
:100140000B6070476E2900F08581702900F0C7822E
:10015000662904F06A83652904F06783672904F03F
:100160006483612904F0638303681B0A28BF41F09C
:100170008001692900F03281642900F02F817529FE
:1001800000F02C816F2900F05482782900F09382CE
:10019000E92900F0EF81E42900F0EC81F52900F075
:1001A000E981EF2900F05182F82900F0928203687A
:1001B000DB0928BF41F08001632900F0998773298A
:1001C00000F09E87E32900F0A987F32900F0AE87AD
:1001D000002070471FB500F0FFFF04000020002141
:1001E00003F0C8FB401C60600020002103F0ACFB62
:1001F000E0601FBD10B510BD00F0C0FF1146FFF755
:10020000E9FF03F02FFA01F09DF803B4FFF7F2FFC6
:1002100003BC01F0A1F800000948804709480047E5
:10022000FEE7FEE7FEE7FEE7FEE7FEE7FEE7FEE7A6
:10023000FEE7FEE704480549054A064B7047000003
:1002400049310008ED00000860040020600A002029
:1002500060060020600600201CB50C46064B7B445F
:1002600069460090204600F00EF9044600206946D9
:1002700000F01CF920461CBD4B0200004FF0013C71
:1002800050F8042B51F8043B9A4221D1A2EB0C0305
:10029000934313EACC1317D150F8042B51F8043BC5
:1002A0009A4215D1A2EB0C03934313EACC130BD162
:1002B00050F8042B51F8043B9A4209D1A2EB0C03ED
:1002C000934313EACC13DBD04FF00000704700BF1C
:1002D000D01A01BAB1FA81F101F0180122FA01F045
:1002E000CB40C1F12001DBB2C0B2C01A2CFA01F33D
:1002F000D11A914311EAC311E6D170477047704794
:10030000704710B500F0BAFA006810BD10B5044689
:1003100000F0B4FA046010BD70B504468569006849
:10032000C10601D5302600E02026C00707D070BDE9
:10033000D4E9012130469047206A401C20626D1E9E
:10034000F6D570BD70B5044685690078C00707D141
:1003500070BDD4E9012120209047206A401C206212
:100360006D1EF6D570BD09684A0501D540B27047CB
:10037000C905FCD500B2704709684A0501D5C0B26D
:100380007047C905FCD580B2704770B50C4605466C
:10039000012A05D02878800600D5EA69002302E00A
:1003A000012305E05B1C934202D2E05C0028F9D1F6
:1003B000A869E618C01AA861286A18442862284665
:1003C000FFF7AAFF04E0D5E9012114F8010B9047DB
:1003D000B442F8D32846FFF7B5FF70BD2DE9F041D0
:1003E0000646002410687529314616A510D0FFF77F
:1003F000BAFF002802DA404213A507E031688A07F5
:1004000001D512A502E0490704D511A5012401E098
:10041000FFF7B2FF00210A2206F1240709E0B0FB32
:10042000F2FCB0FBF2F302FB1C00303078541846AB
:10043000491C0028F3D123462A463046BDE8F04146
:1004400000F065BA000000002D0000002B00000045
:100450002000000011680268006A530501D5087089
:100460000AE0D30501D5088006E0130603D5C217BC
:10047000C1E9000200E008600120704701694A1CE0
:1004800002610878704700B58FB0CDE901310021D5
:10049000059105497944CDE903101146684600F0FD
:1004A00029F90FB000BD0000E5FFFFFF0A6802F860
:1004B000010B0A60704700002DE9FF5F15468A4670
:1004C0000446DFF8AC80F8440027D8E900103E4627
:1004D000CDE9001010E03AF816106A4602A800F0C4
:1004E00029FE411C07D02178890603D5E269391815
:1004F00091420DD80744761C2078800602D5E06929
:10050000B84205DDAE42E6DB3AF816000028E2D13B
:10051000A069C01BA0612046FFF7FEFED8E90010CD
:10052000CDE90010002017E03AF818106A4602A83A
:1005300000F000FEB0F1FF3F81460BD000250DF129
:10054000080B05E0D4E901211BF8050090476D1C5C
:100550004D45F7D308F10100B0428046E4DB206A44
:10056000384420622046FFF7EDFEBDE8FF9F000003
:100570009E4D00002DE9F0418046D21D22F0070279
:100580000025D2E90002F52915A614D0011E72F14A
:10059000000106DA0023D0EB030063EB020211A690
:1005A00008E0D8F800108B0701D50FA602E0490734
:1005B00001D50EA601251146002408F1240704E008
:1005C00000F060F930323A55641C50EA0102F7D16C
:1005D0002B46324621464046BDE8F04100F097B92F
:1005E000000000002D0000002B0000002000000093
:1005F00030B4002100F1240408E002F00705D2081D
:10060000303542EA4372DB086554491C52EA03055F
:10061000F3D10468002310A2250707D5A40600D44F
:1006200021B1C46901230DA2641EC46130BC00F075
:100630006EB910B5044621461068FFF79DFE0246CC
:100640002046BDE810400023D2E7D21D22F007016A
:10065000D1E90023CCE700000000000030000000DA
:10066000F0B40D460188090502D5214C7C4402E016
:100670001F4C7C440E34002100F1240608E002F0F7
:100680000F071209E75D42EA03721B097754491C00
:1006900052EA0307F3D102780023120704D5702D24
:1006A00006D009B1022311342246F0BC00F02FB964
:1006B00001231034F8E770B504460D462146106852
:1006C000FFF75AFE024629462046BDE87040002347
:1006D000C6E7D21D22F00703D3E90023C0E7036871
:1006E000126843F0200303600823C3610023B7E7C7
:1006F000004C00002DE9F05F894604464FF0000AE7
:10070000DFF874B1FB44C0F820A02046E1688847B8
:10071000002874D0252806D0D4E901219047206A0A
:10072000401C2062F1E700265F462046E1688847CA
:100730002028054607DB312D05D2781910F8200C4A
:1007400008B10643F1E7B00701D526F00406C4F866
:100750001CA00027C4F818A02A2D09D0284602F0B2
:100760009BFD38B304EB8708303DC8F8185019E0FA
:1007700059F8041B204604EB87029161E168884721
:10078000012F054618D1E069002820DA26F020065E
:100790001DE0D8F8180000EB800005EB4000303871
:1007A000C8F818002046E1688847054602F074FD45
:1007B0000028EED1012F0AD02E2D08D12046E16865
:1007C00088477F1C0546022F46F02006C4DBA0693F
:1007D000002803DA404246F00106A061F00701D08C
:1007E00026F010066C2D0BD0682D09D04C2D39D079
:1007F0006A2D35D0742D35D07A2D33D016E038E0FF
:10080000E1682F4620468847B842054609D16C2F3B
:1008100026D04FF48060E1680643204688470546AD
:1008200004E06C2F1AD04FF4807006430DB3A5F18D
:100830004100192802D8203546F400664A46294668
:10084000204626604E46FFF77DFC80B101280BD084
:10085000F61D26F0070000F1080956E74020E4E7FE
:100860008020D8E70020D6E706F104094DE72846A6
:1008700052E7206ABDE8F09F904B000000487047A7
:100880000004002030B5B0F10A024FEA900E71F179
:1008900000034EEA817EB0EB0E0061EB91014FEA5E
:1008A000101E4EEA017E10EB0E0041EB11114FEAD3
:1008B000102E4EEA016E10EB0E0041EB11214FEAB3
:1008C000104E4EEA014E10EB0E0041EB1141401864
:1008D00041F100014FEAD00040EA41704FEAD101F6
:1008E00010EB80054FEA810444EA907444EB010464
:1008F0006D1944EB0404521BA3414FF0000348BFA1
:100900000A3200D530BD401C41F1000130BD2DE957
:10091000F0470D4699469246044600F124080168C6
:10092000880604D5E06921F01001216000E0012073
:10093000A84201DD471B00E00027A1697A1902EBFC
:100940000900081AA0612078C00602D42046FFF7EB
:10095000E3FC002608E0D4E901211AF806009047DC
:10096000206A401C761C20624E45F4DB2078C006CD
:100970000AD52046FFF7D0FC06E0D4E9012130205B
:100980009047206A401C2062381EA7F10107F4DC62
:1009900007E0D4E9012118F805009047206A401CBF
:1009A0002062281EA5F10105F3DC2046FFF7CAFCF2
:1009B0002078000602D50220BDE8F0870120FBE781
:1009C00070472DE9FF4F0C461E464FF0FF378BB0A6
:1009D000D2E90001DDF860800A908A46C1F30A5529
:1009E00005B93D46002108464FF00000BAF1000F5E
:1009F00000F4400005DA00EB80004FF4400101EA0A
:100A000050004FEA9059B9F1010F00DDB9460A983C
:100A100050EA4A000ED044F61050A5F2FF35454387
:100A20002F14B8F1000F1ED07542291E1EDDC9F12A
:100A300000021CE0B8F1010F4FF0000001D030219E
:100A400003E0F24305E02154401CB042FBDB30469A
:100A50000022002121540B99C1F80880C1E900202F
:100A60000FB0BDE8F08FBD1B6D1CDEE74A4600DA13
:100A7000694206A800F0F4FB06AB93E8070003AB5D
:100A800083E8070050460A9900F06DFC8DE80700E6
:100A9000A0F500501F3800900398002D0ADD42F2A7
:100AA0001F014A460844002303A90390684600F04A
:100AB000D6FE09E0A0F500504A461F38002303A9DE
:100AC0000390684600F0E0FE8DE807000004000C8B
:100AD00003D04FF0FF30410800E01046B8F1000F9E
:100AE00003D00022009215461EE0751E05D4FFF7C4
:100AF000C9FE303262556D1EF9D5B3460122084356
:100B000002D000227F1C04E02078302801D100228E
:100B10007F1E002A099784D01DE0112D07DAFFF708
:100B2000B1FE303262556D1C50EA0102F5D1084326
:100B300002D00098C8B10EE00021681E05E0235CD9
:100B4000625C63542254401E491C8142F7DBAB4671
:100B5000A81B401E0990002004F80B000B98099A6E
:100B6000C0F80880C0E9002B7AE711264FF0000892
:100B700057E72DE9F04F88460446D21D22F00701C1
:100B800091B0D1E90001CDE90A0102F00FFB024664
:100B90000B98C00F01D02D2007E02068810701D5F8
:100BA0002B2002E0202101EAC000032A099001D095
:100BB000072A05DB03464146204600F011FB0BE106
:100BC0002078800601D5E06900E00620B8F1650FC5
:100BD000814606D0B8F1660F18D0B8F1670F70D112
:100BE00031E00020B9F1110F009001DB112301E089
:100BF00009F101030AAA01A90CA8FFF7E2FEDDE949
:100C00000C70002609F10105834647E001204B46A0
:100C100000904FF000470AAA01A90CA8FFF7D1FEE7
:100C2000DDE90DB00C995D46002610B909F101000F
:100C30000D18B9EB050003D4C0F1FF3609F1010529
:100C4000A5EB09002BE0B9F1010F01DA4FF0010922
:100C50000020B9F1110F0090484601DD112300E09A
:100C600003460AAA01A90CA8FFF7ABFEDDE90C7048
:100C70004D4600268346207800070AD4AB4500DAAB
:100C80005D4601A8012D04DD411911F8011C302930
:100C900007D04F4502DA17F1040F04DA012082462B
:100CA0000FE06D1EEEE7002F02DCED1B3E4403E07B
:100CB000781CA84200DD7D1CB81B00F1010A4FF032
:100CC00000472078000703D4AA4501DB4FF0FF3A24
:100CD0000021B7F1004F0DF143088DF8431024D0E7
:100CE00002202B23002F01DA7F422D230A21021E2E
:100CF000A0F1010000DC5FB197FBF1FC97FBF1F282
:100D000001FB1C7C17460CF1300C08F801CDEEE716
:100D1000A8F1010003702188090501D5452100E0F3
:100D20006521A0F1010800F8011C09980FA9A1EBA9
:100D30000807FF1D00B10120411901EBEA70A1690C
:100D40003844081A401EA0612078C00602D420460C
:100D5000FFF7E2FA099828B1D4E901219047206A07
:100D6000401C20622078C00622D52046FFF7D4FA26
:100D70001EE0002E04DBB34502DD01A8805D00E02B
:100D80003020D4E901219047206A401C2062761C63
:100D9000AAF101005FEA000A0AD100F01DFAC0685A
:100DA0000168405CD4E901219047206A401C206220
:100DB000281EA5F10105DCDC07E0D4E9012118F8C3
:100DC000010B9047206A401C2062381EA7F10107E2
:100DD000F3DC2046FFF7B6FA032011B041E600002D
:100DE0002DE9F04F04460D46D21D22F0070089B0D0
:100DF000D0E900974846394602F0D8F90246F80F84
:100E000001D02D2307E02068810701D52B2302E0C4
:100E1000202101EAC0038DF820300BB1012000E051
:100E20000020032A824601D0072A04DB29462046F7
:100E300000F0D6F93FE12078800601D40D2500E0CE
:100E4000E569C7F30A560D2D49DA00214FEA175B11
:100E500008464FF00000002F00F4400007DA00EBD6
:100E600080004FF4400100EBD07001EA6000811572
:100E7000012901DD4FF0FF3100224FEA850CBCF162
:100E8000180F06D31346ACF118004FF08052C24041
:100E900003E04FF4801323FA0CF30CF10C0CBCF1BB
:100EA000200F04D3ACF1200C09FA0CF001E007FA92
:100EB0000CF000294FF0004801DD18B90FE00ED109
:100EC00040450CD319EB02095F4121B9404502D1DD
:100ED0009F4329EA0209BBEB175F00D0761C2088EC
:100EE000000502D57B48784402E07A4878441938F6
:100EF00008AA302302F80A30037C0AF10101002E0F
:100F00000AF1020A53546A4602DC4FF0300101E054
:100F10004FF031014FF001088DF8001002D0A6F219
:100F2000FF3603E059EA470100D06B4E002D02DC8A
:100F30002178090704D54FF002082E218DF8011001
:100F4000C44600210BE0C7F303433F01C35C491CC7
:100F50006D1E02F80830052908F1010801DA002D9C
:100F6000F1DC00210CE000EB1973491C1B786D1EAD
:100F7000082902F808304FEA091908F1010801DAD6
:100F8000002DF0DC21688B0602D516E0A8F10108DF
:100F9000E04505DD02EB080313F8013C302BF5D0EA
:100FA000B8F1000F09DD02EB080313F8013C2E2B0A
:100FB00003D1090701D4A8F10108002D05DD3E2168
:100FC00002F808106D1E08F10108407C002E02F89E
:100FD000080008F1010804DA2D20764202F8080022
:100FE00002E02B2002F808000A214FF47A708642B2
:100FF00008F101080BDB96FBF0F3303302F8083000
:1010000096FBF0F308F1010800FB136601E0642E83
:101010000CDB642096FBF0F3303302F8083096FBCB
:10102000F0F308F1010800FB136601E00A2E06DB6D
:1010300096FBF1F0303002F8080008F1010896FB49
:10104000F1F001FB1060303002F80800A16908F1EE
:10105000010808EB050202EB0A00081AA0612078DB
:10106000C00602D42046FFF757F9216A08AE01EB0B
:101070000A00206204E0D4E9012116F8010B904730
:10108000BAF1010AF7D22078C00602D52046FFF750
:1010900043F96E4609E016F8010B3E280FD0D4E95B
:1010A00001219047206A401C2062B8F10108F2D269
:1010B0002046FFF747F909B00320BDE8F08F206A0A
:1010C0002844206203E0D4E90121302090476D1EBE
:1010D000EBD3F8E77944000002FCFFFF10B5436949
:1010E00013B1AFF3008001E0FFF74FF9012010BD0D
:1010F000127800F124010A7000224A700122EDE703
:1011000011684FF0FF32E9E710B5436913B1AFF34F
:10111000008001E0FFF7D0F9012010BD128800F136
:10112000240182840022C2840122EDE711684FF07D
:10113000FF32E9E770B516460C46054600F044F864
:10114000036893F80101012806D0FF2C0FD8185D21
:1011500068B101202C7070BDD3F8070132462146DA
:1011600003F2071303442846BDE8704018474FF0C8
:10117000FF3070BD00487047000400207546FFF73F
:10118000F9FFAE4605006946534620F00700854644
:1011900018B020B5FFF74EF8BDE820404FF000062C
:1011A0004FF000074FF000084FF0000B21F007014F
:1011B000AC46ACE8C009ACE8C009ACE8C009ACE892
:1011C000C0098D467047000010B500F005F8001DFD
:1011D00010BD00BFA1270000004870472004002078
:1011E0002DE9F0411F46044603260168072A01F451
:1011F000006004DB08B116A505E016A503E008B100
:1012000015A500E015A521F010002060A069C01E02
:10121000A0610FB1401EA0612046FFF77DF84FB1DD
:10122000D4E9012138469047206A401C2062C01C46
:10123000206206E0206AFAE7D4E9012115F8010BE3
:101240009047761EF8D22046FFF77CF8BDE8F08183
:101250004E414E006E616E00494E4600696E66005A
:101260002DE9F047814616468AB0354878440DC8C6
:101270008DE80D0032487844801C03AC0DC884E82A
:101280000D0041F69B300844372190FBF1F290FBB2
:10129000F1F5A5F1800501FB12041B3C02D5644267
:1012A000012000E00020DFF898A080460027FA44E3
:1012B000AAF1BE0A0EE0E0070AD03246684607EB04
:1012C000470101230AEB810100F0DEFA8DE80700F7
:1012D00064107F1C002CEED1194F7F44AE3F19E003
:1012E000E80715D007EB04100DF1180A90E80E007E
:1012F0008AE80E00C068F04201D198190890324681
:10130000012306A903A800F0BFFA03AB83E8070096
:101310006D10641C002DE3D14FF001033246694685
:10132000B8F1000F03A802D000F099FA01E000F034
:10133000ABFAC9E90001C9F808200AB0BDE8F08796
:101340008441000010B50446AFF300802046BDE89C
:101350001040FEF75ABF000001491820ABBEFEE75F
:101360002600020070475FEA400C08BF91F0000FB2
:101370004FEA8C234FEAC12243EA51514FEA1C50F5
:1013800018BF00F5F0404FEA300018BF41F00041AF
:101390005FEA6C5C00F02980BCF1FF3F08BF40F0C1
:1013A00080407047130C06BF12044FF0100C4FF032
:1013B000000C130E04BF12020CF1080C130F04BF33
:1013C00012010CF1040C930F04BF92000CF1020CFB
:1013D000D30F04BF52000CF1010C11464FF0000274
:1013E000A0F11F00A0EB0C00704711F0004F08BFE8
:1013F000704731F000413FF4D5AF0B0C06BF090434
:101400004FF0100C4FF0000C0B0E04BF09020CF152
:10141000080C0B0F04BF09010CF1040C8B0F04BF67
:1014200089000CF1020CCB0F04BF49000CF1010C38
:10143000CCF12003A0EB0C0022FA03F302FA0CF229
:1014400041EA030100F10100704720F07F4C80EA7F
:10145000030023F07F47ACEB070303F57C5300F058
:10146000004003F1FF032DE980494FEA154B09B411
:101470004FEA144325EA0B4E24EA03480FF20426F0
:1014800006EB132749083E785FEA320203FB066742
:10149000C7F5000707FB06F64FEA54374FEAD64672
:1014A00006F1020607FB066CCCF1005C4FEA1C4714
:1014B0002CEA074C07FB06F40CFB06F504EB15467B
:1014C0004FEA961634BF00204FF000404FEAD13764
:1014D00006FB07FC4FEA1C4C0CFB0BF7D21B03FB73
:1014E0000CF761EB07010CFB0EF7B0EB074072EB5A
:1014F00017420CFB08F734BFA2EB0742B2EB0742DE
:1015000061EB17414FEA0C444FEA910706FB07FCD9
:101510004FEA1C4C0CFB0BF7B0EBC74072EB573299
:1015200003FB0CF734BFA2EBC742B2EBC74261EB3F
:1015300057310CFB0EF7B0EBC70072EB57720CFB88
:1015400008F734BFA2EBC702B2EBC70261EB5771D9
:10155000039F4FEA816141EA921104EBCC044FEA08
:10156000D1374FEA826206FB07FC42EA90124FEA4B
:1015700080604FEA1C4C0CFB0BF7D21B03FB0CF7F3
:1015800061EB07010CFB0EF7B0EB074072EB174263
:101590000CFB08F734BFA2EB0742B2EB074261EB4A
:1015A00017414FEA8C554FEA910704EB9C2406FB48
:1015B00007FC4FEA1C4C0CFB0BF7B0EBC74072EB7F
:1015C000573203FB0CF734BFA2EBC742B2EBC74262
:1015D00061EB57310CFB0EF7B0EBC70072EB5772A3
:1015E0000CFB08F734BFA2EBC702B2EBC70261EBFA
:1015F000577115EB4C254FEA816141EA92114FEA90
:1016000082624FEAD13742EA901206FB07FC44F1AE
:1016100000044FEA80604FEA1C4C0CFB0BF7D21B16
:1016200003FB0CF761EB07010CFB0EF7B0EB074077
:1016300072EB17420CFB08F734BFA2EB0742B2EB88
:10164000074261EB174115EB1C154FEA813141EA66
:1016500092414FEA823242EA90424FEA80304FEAAA
:101660000C7644F1000448EA03434EEA0B484FF07D
:10167000000EB2EB080C71EB030724BF624639463B
:101680004EEB0E0E4FF0000B0018524149414BEB50
:101690000B0BB2EB080C71EB03077BF1000B24BFC3
:1016A000624639464EEB0E0E4FF0000B00185241C9
:1016B00049414BEB0B0BB2EB080C71EB03077BF1D1
:1016C000000B24BF624639464EEB0E0E51EA02076C
:1016D00018BF46F0010616EB0E7655F1000254F1E4
:1016E000000103D5BDE88901BDE80088BDE8890196
:1016F000BDE80048B619524141EB0101A3F10103D5
:10170000704780807F7E7D7C7B7A7978777676756E
:101710007473727171706F6E6E6D6C6C6B6A6A69E6
:101720006868676666656464636362616160605F80
:101730005F5E5E5D5D5C5C5B5B5A5A5959585857F9
:101740005756565555555454535352525251515061
:1017500050504F4F4F4E4E4D4D4D4C4C4C4B4B4BB4
:101760004A4A4A49494948484847474747464646FA
:101770004545454444444443434343424242424135
:101780004141002B9C4630D477002BD01CB54FEA4A
:10179000370703B44FF010004FF01001BAF1000FFB
:1017A00006D0BCF1000FDCBF40F0080040F008019B
:1017B0004FF000000FBCBDE810400BF1010BBBF176
:1017C000010F08BF5FEA170722BF12F1010211F1F2
:1017D00001014FF0004143F1000300F0004043EAF3
:1017E00000007047F9D35708D0E746EA064613F1E0
:1017F000400F4FEA16461FDD13F1200FDFBF1643DF
:101800000A46002120335B42BED0C3F1200746EADE
:10181000064602FA07F74FEA164646EA0706C3F1FC
:10182000200722FA03F201FA07F721FA03F14FF039
:10183000000342EA0702A7E746EA020646EA06462E
:101840004FEA164646EA0106BCBF46EA0646360C93
:101850004FF000034FF000024FF0000194E72DE934
:10186000804C9A46934670B491E8380007C831EA34
:10187000400C48BF34EA430C03D5FFF7E6FDFFF701
:1018800080FFF0BCBDE8008C2DE9804C9A46934661
:1018900070B491E8380007C810F0804F08BF13F00B
:1018A000804F03D100F005F8FFF76BFFF0BCBDE8F7
:1018B000008C20F07F4780EA030023F07F4C07EB89
:1018C0000C03A3F57C5300F00040A3F1FE0392F05B
:1018D000000F00F0B38095F0000F00F077802DE945
:1018E00001494FEA11404FEA144621EA004800FB43
:1018F00006FC24EA064708FB06F607FB08F800FB8F
:1019000007F718EB06484CEB164C4FEA124B18EB56
:1019100007484FEA15464CEB174022EA0B4E0BFBEB
:1019200006FC25EA06470EFB06F607FB0EFE0BFB40
:1019300007F71EEB064E4CEB164C4FF000061EEB65
:10194000074E4CEB174B18EB0B0840F1000018EB5F
:101950000E0B58EB000840F100008F1A4FF0000109
:101960003CBFC943661B14BFB5EB040C00213CBF50
:10197000C943F61B4FEA17444EEA8E0E27EA044588
:101980004FEA1C4704FB07622CEA074C05FB07F7EC
:101990000CFB05F604FB0CFC16EB074642EB17426A
:1019A00016EB0C4642EB1C421BEB060658EB020200
:1019B000414146EA9E0601D5BDE80189B61952416A
:1019C00041EB0101A3F10103BDE801894FEA144590
:1019D0004FEA114724EA054621EA074C05FB07F4C4
:1019E00006FB07F70CFB06F105FB0CFC11EB0741AE
:1019F00044EB17444FEA124711EB0C4144EB1C44F3
:101A000022EA074C05FB07F206FB07F70CFB06F67C
:101A100005FB0CFC16EB074642EB174216EB0C4697
:101A200042EB1C456A1854F1000148BF7047B619D3
:101A3000524141EB0101A3F10103704795F0000F02
:101A400037D04FEA11424FEA144721EA024624EA0E
:101A5000074C02FB07F106FB07F70CFB06F402FB41
:101A60000CFC14EB074441EB17414FEA154714EB0C
:101A70000C4441EB1C4125EA074C02FB07F506FB31
:101A800007F70CFB06F602FB0CFC16EB074645EBD2
:101A9000174516EB0C4645EB1C42121951F100019B
:101AA00048BF7047B619524141EB0101A3F1010350
:101AB00070474FEA14454FEA114724EA054621EAE8
:101AC000074C05FB07F106FB07F70CFB06F24FF08E
:101AD000000605FB0CFC12EB074241EB174112EB31
:101AE0000C4251EB1C4148BF7047921841EB010179
:101AF000A3F10103704700BFFEE7704700B503463E
:101B000003E04FF47A7000F005F8181EA3F101030A
:101B1000F7D100BD00EBC001C9004FF0E0225161D8
:101B2000002191610521116100BF4FF0E021096999
:101B300001F480310029F8D004214FF0E022116136
:101B400070472DE9F04102460025002600200023C1
:101B50000024002791F803C00CF00F0591F803C092
:101B60000CF0100CBCF1000F03D091F802C04CEA4D
:101B7000050591F800C0BCF1000F31D014680020B9
:101B80002BE04FF0010C0CFA00F3B1F800C00CEAA6
:101B900003069E4220D183004FF00F0C0CFA03F78E
:101BA000BC4305FA03FC4CEA040491F803C0BCF101
:101BB000280F06D14FF0010C0CFA00FCC2F814C03B
:101BC0000AE091F803C0BCF1480F05D14FF0010CB9
:101BD0000CFA00FCC2F810C0401C0828D1D31460D5
:101BE000B1F800C0BCF1FF0F34DD546800202EE0D6
:101BF00000F1080C4FF0010808FA0CF3B1F800C02E
:101C00000CEA03069E4221D183004FF00F0C0CFA20
:101C100003F7BC4305FA03FC4CEA040491F803C043
:101C2000BCF1280F05D100F1080C08FA0CF8C2F835
:101C3000148091F803C0BCF1480F07D100F1080CE3
:101C40004FF0010808FA0CF8C2F81080401C082870
:101C5000CED35460BDE8F0810AB1016100E041617A
:101C6000704700BFFEE700BFFEE7704700200CE0B2
:101C7000002106E00022064B03EBC0135A544A1C15
:101C8000D1B28029F6DB421CD0B20828F0DB7047C5
:101C9000000000202DE9F04304460D4616461F467D
:101CA000284638E0224631E0002A2DDB7F2A2BDC53
:101CB000002829DB3F2827DC4FEAE07C00EB5C7C36
:101CC0004FEAEC0CDFF8588008EBCC1C1CF802C083
:101CD00003464FEAE07800EB58784FEAE808A0EBBB
:101CE000C8094FF0010808FA09F82CEA080C014667
:101CF0004FEAE07800EB58784FEAE808DFF82090E8
:101D000009EBC81808F802C0511C0AB2A119914287
:101D1000CADC411C08B2E9198142C3DCBDE8F0838A
:101D2000000000202DE9F05F07460E4691469B46D5
:101D3000C9F1010A00254C465A46214628460A9B0D
:101D400000F0E4FD28B1321911B27A1910B200F096
:101D500021FC5A46604201B2684200B20A9B00F080
:101D6000D5FD28B1321B11B27A1B10B200F012FC63
:101D70005A46294620460A9B00F0C8FD28B1721930
:101D800011B23A1910B200F005FC5A46684201B28D
:101D9000604200B20A9B00F0B9FD28B1721B11B27B
:101DA0003A1B10B200F0F6FB0B98B0B160420FFA8C
:101DB00080F810E05A46414600200A9B00F0A6FD3C
:101DC00028B106EB080001B2384600F0E3FB08F149
:101DD00001000FFA80F8A045ECDBD3E0681C05B2E7
:101DE000BAF1000F05DA6800401C50440FFA80FA7F
:101DF00007E0601E04B2281B4000401C50440FFA4C
:101E000080FA5A46214628460A9B00F07FFD28B1F9
:101E1000321911B27A1910B200F0BCFB5A462946A9
:101E200020460A9B00F072FD28B1721911B23A19CE
:101E300010B200F0AFFB5A46604201B2684200B2F5
:101E40000A9B00F063FD28B1321B11B27A1B10B25D
:101E500000F0A0FB5A46684201B2604200B20A9B01
:101E600000F054FD28B1721B11B23A1B10B200F001
:101E700091FB5A46604201B228460A9B00F046FD9B
:101E800028B1321B11B27A1910B200F083FB5A4606
:101E9000684201B220460A9B00F038FD28B1721B4F
:101EA00011B23A1910B200F075FB5A462146684249
:101EB00000B20A9B00F02AFD28B1321911B27A1B38
:101EC00010B200F067FB5A462946604200B20A9BF6
:101ED00000F01CFD28B1721911B23A1B10B200F0CB
:101EE00059FB0B9800284DD060420FFA80F820E093
:101EF0005A46414628460A9B00F008FD30B106EBE1
:101F0000080211B27A1910B200F044FB5A46414659
:101F1000684200B20A9B00F0F9FC30B106EB0802FF
:101F200011B27A1B10B200F035FB08F101000FFA74
:101F300080F8A045DCDB68420FFA80F820E05A46C2
:101F40004146604200B20A9B00F0E0FC30B106EB73
:101F5000080211B23A1B10B200F01CFB5A4641466F
:101F600020460A9B00F0D2FC30B106EB080211B209
:101F70003A1910B200F00EFB08F101000FFA80F8D8
:101F8000A845DCDBA542FFF629AFBDE8F09F2DE9AF
:101F9000F04F07460E4691469A46C9F1010B0025BF
:101FA0004C46321911B27A1910B200F0F3FA321B12
:101FB00011B27A1B10B200F0EDFA721911B23A198F
:101FC00010B200F0E7FA721B11B23A1B10B200F027
:101FD000E1FABAF1000F0FD060420FFA80F809E081
:101FE00006EB080001B2384600F0D4FA08F101000F
:101FF0000FFA80F8A045F3DB75E0681C05B2BBF171
:10200000000F05DA6800401C58440FFA80FB07E017
:10201000601E04B2281B4000401C58440FFA80FB8D
:10202000321911B27A1910B200F0B4FA721911B261
:102030003A1910B200F0AEFA321B11B27A1B10B28C
:1020400000F0A8FA721B11B23A1B10B200F0A2FA0B
:10205000321B11B27A1910B200F09CFA721B11B245
:102060003A1910B200F096FA321911B27A1B10B276
:1020700000F090FA721911B23A1B10B200F08AFA0D
:10208000BAF1000F2FD060420FFA80F811E006EB92
:10209000080211B27A1910B200F07CFA06EB0802BD
:1020A00011B27A1B10B200F075FA08F101000FFAB4
:1020B00080F8A045EBDB68420FFA80F811E006EBF0
:1020C000080211B23A1B10B200F064FA06EB0802E3
:1020D00011B23A1910B200F05DFA08F101000FFADE
:1020E00080F8A845EBDBA54287DBBDE8F08F000058
:1020F0002DE9FF4F97B007460E469B46DDF864A0DA
:10210000D94600254C46C9F1000001F028FF002205
:10211000C14BCDE9080101F075FCCDE90C010AFBCA
:102120000AF001F01CFFCDE90A01DDE90C2301F002
:102130007DFFCDE9100109FB09F001F010FFCDE9A9
:102140000E01DDE9102301F05DFCCDE9120101F083
:1021500027FC15902498A8B160420FFA80F80FE090
:1021600006EB080001B2384600F014FA06EB08004E
:1021700001B2384600F00EFA08F101000FFA80F8BB
:10218000A045EDDB321911B27A1910B200F002FA53
:10219000321B11B27A1B10B200F0FCF9321911B2E5
:1021A0007A1B10B200F0F6F9321B11B27A1910B294
:1021B00000F0F0F95BE00021159802F041FA0DD82B
:1021C00009FB09F16A00D21C01FB02F002F020FABF
:1021D0001390159902F0AEF9159014E009FB09F17E
:1021E0006A00D21C51430AFB0AF26300C3F10203E6
:1021F00002FB031002F00CFA1390159902F09AF901
:102200001590601E04B2681C05B22498B8B16042F3
:102210000FFA80F811E006EB080211B27A1910B239
:1022200000F0B8F906EB080211B27A1B10B200F008
:10223000B1F908F101000FFA80F8A045EBDB321983
:1022400011B27A1910B200F0A5F9321B11B27A1B43
:1022500010B200F09FF9321911B27A1B10B200F0DF
:1022600099F9321B11B27A1910B200F093F9204695
:1022700001F075FE0022684BCDE90A0102F070F80A
:10228000CDE90E010AFB0AF001F069FECDE90C016F
:10229000DDE90E2301F0CAFECDE9120109FB09F1C7
:1022A0006A1C01FB02F001F05AFECDE91001DDE9E4
:1022B000122301F07FFEFFF47EAF0AFB0AF101FB5F
:1022C00009F101FB09F001F04AFECDE910010AFB1A
:1022D0000AF1621E514301FB02F001F040FECDE91C
:1022E0000C01284601F03BFE00224B4BCDE90401D6
:1022F00001F088FBCDE90801284601F030FE0022FC
:10230000454BCDE9000101F07DFBCDE9040109FB5E
:1023100009F001F024FECDE90201DDE9042301F01A
:1023200085FECDE90601DDE9082301F07FFECDE958
:102330000A01DDE90C2301F065FBCDE90E01DDE9C1
:10234000102302F00DF8CDE9120101F029FB1490E1
:102350005CE00021149802F073F915D809FB09F12B
:102360006A00921C51430AFB0AF26300C3F10303A3
:1023700002FB031002F04CF91390149902F0DAF802
:102380001490681C05B20DE00AFB0AF16200C2F16C
:10239000030201FB02F002F03BF91390149902F0E2
:1023A000C9F81490601E04B22498B8B160420FFAC4
:1023B00080F811E006EB080211B27A1910B200F0B1
:1023C000E9F806EB080211B27A1B10B200F0E2F84D
:1023D00008F101000FFA80F8A045EBDB321911B2C9
:1023E0007A1910B200F0D6F8321B11B27A1B10B273
:1023F00000F0D0F8321911B27A1B10B200F0CAF80E
:10240000321B11B27A1910B200F0C4F8002CA0DC13
:102410001BB0BDE8F08F00000000E03F2DE9FF4F4A
:1024200086B0069E079CDDF82080DDF82490002011
:10243000019000904C450FD1464502DDB24646461C
:10244000D046354605E02146284600F0A3F8681C32
:1024500005B24545F7DD99E046450FD14C4502DD13
:10246000A2464C46D146274605E03946304600F0A4
:1024700091F8781C07B24F45F7DD87E0464505DD4A
:10248000B2464646D046A2464C46D1464C4507DDAC
:10249000604204B2C9F100000FFA80F901200190F6
:1024A000A9EB0400A8EB0601884207DDB2462646E8
:1024B0005446C246C846D14601200090A8EB06000B
:1024C00000B20590A9EB04000FFA80FB4FEA4B0025
:1024D00000B203900598ABEB0000400000B2029000
:1024E0000598C0EB4B0000B2049035462746019892
:1024F00038B1009828B1684201B2384600F04AF875
:1025000012E0019828B1784201B2284600F042F862
:102510000AE0009820B12946384600F03BF803E075
:102520003946284600F036F82EE0681C05B20498BB
:10253000002805DADDE90310084400B2049006E043
:10254000781C07B202990498084400B204900198DC
:1025500038B1009828B1684201B2384600F01AF844
:1025600012E0019828B1784201B2284600F012F832
:102570000AE0009820B12946384600F00BF803E045
:102580003946284600F006F84545CEDB0AB0BDE8DE
:10259000F08F000070B50346002B20DB7F2B1EDC84
:1025A00000291CDB3F291ADCCC1701EB5474E41022
:1025B0000B4D05EBC414E45C0A46CD1701EB5575D1
:1025C000ED10A1EBC5060125B5402C430846CD17FB
:1025D00001EB5575ED10024E06EBC515EC5470BDC0
:1025E000000000202DE9F04705460E4617469846A4
:1025F000DDF820A0BAF1000F24D12C460CE03146C2
:102600002046FFF7C7FF06EB0800401E01B2204638
:10261000FFF7C0FF601C04B2E819A042EFDC3446AB
:102620000BE021462846FFF7B5FFE919491E08B21D
:102630002146FFF7AFFF601C04B206EB0800A04282
:10264000EFDC14E02C460FE0B14607E04946204697
:10265000FFF7A0FF09F101000FFA80F906EB08006F
:102660004845F3DC601C04B2E819A042ECDCBDE88C
:10267000F0872DE9FF4F87B014461D46DDE914674A
:10268000DDF81C80DDF82090DDF81C80CDF8188086
:10269000DDF82090CB46DDF81C80ADF80C80ADF85D
:1026A0000E40ADF81060DDF82090ADF80490ADF864
:1026B0000650ADF80870169890B92B462246DDE911
:1026C0000701FFF7ABFE3B463246DDE90701FFF7A6
:1026D000A5FE3B46324629462046FFF79FFE39E0DD
:1026E000444500DAA046464500DAB0464D4500DADA
:1026F000A9464F4500DAB9460698844200DD0694A3
:102700000698864200DD06965D4500DDAB465F45D6
:1027100000DDBB46C2461AE0CDF8149010E00598E3
:10272000534601AA03A90090032000F03EFC18B113
:1027300050460599FFF72EFF0598401C00B2059002
:1027400005985845EBDD0AF101000FFA80FA06986A
:102750008245E1DD0BB0BDE8F08F000038B5002404
:1027600006E0002500E06D1CB5F57A7FFBD3641C04
:10277000B4F57A7FF5D30121082000F05DFC142028
:102780008DF8030003208DF802004FF48070ADF83F
:10279000000069460848FFF7D4F94FF40070ADF81F
:1027A000000069460448FFF7CCF9012000F0BEFBA9
:1027B000012000F0C7FB38BD000C014070B5024697
:1027C000002A19DB7F2A17DC002915DB3F2913DCDF
:1027D000CC1701EB5474E410084D05EBC414A45C51
:1027E000CD1701EB5575ED10A1EBC5060125B540E0
:1027F0002C400CB1012070BD0020FCE7000000203F
:1028000070B50546002411E080212141294009B11D
:10281000012100E00021084600F094FB012000F0B7
:1028200085FB002000F082FB601CC4B2082CEBDBAF
:10283000012000F07BFB002000F078FB70BD10B59C
:10284000012000F07FFB012000F070FB002000F071
:1028500079FB002000F06AFB10BD10B5002000F0ED
:1028600071FB012000F062FB012000F06BFB10BD4A
:1028700010B5FFF773FFAE2000F070FBD52000F01D
:102880006DFB802000F06AFBA82000F067FB3F2072
:1028900000F064FBD32000F061FB002000F05EFB41
:1028A000402000F05BFBA12000F058FBC82000F0A6
:1028B00055FBDA2000F052FB122000F04FFB812084
:1028C00000F04CFBCF2000F049FBD92000F046FB84
:1028D000F12000F043FBDB2000F040FB302000F053
:1028E0003DFBA42000F03AFBA62000F037FB8D2032
:1028F00000F034FB142000F031FBAF2000F02EFB81
:10290000FFF7B4F900F0FEFA10BD00002DE9FF4F0B
:1029100087B08B4614469946079801F020FB054680
:102920000E46584601F01BFB07462A46334600F088
:10293000CBFD124A124BCDE9000101F01FF9002234
:10294000104BCDE9020101F071FBCDE9040101F06A
:10295000A9FA0FFA80FA4C4507DAA2450BDBCA4503
:1029600009DC01200BB0BDE8F08FA24501DACA45B1
:1029700001DC0120F6E70020F4E700001F85EB51A1
:10298000B81E09400080664010B50246012000E0F4
:1029900050430B1EA1F10101FAD110BD0FB470B567
:1029A000C2B005460E4614464AA8019002A8019AF4
:1029B0004999FDF751FC00200190234602AA3146B7
:1029C000284600F087FA42B070BC5DF814FB0000A6
:1029D000002011E000210BE0094A02EBC012525C1A
:1029E00082F0FF02064B03EBC0135A544A1CD1B2CB
:1029F0008029F1DB421CD0B20828EBDB70470000D5
:102A0000000000202DE9F04304460D4616461F46FF
:102A1000284638E0224631E0002A2DDB7F2A2BDCD5
:102A2000002829DB3F2827DC4FEAE07C00EB5C7CB8
:102A30004FEAEC0CDFF8588008EBCC1C1CF802C005
:102A400003464FEAE07800EB58784FEAE808A0EB3D
:102A5000C8094FF0010808FA09F88CEA080C014689
:102A60004FEAE07800EB58784FEAE808DFF820906A
:102A700009EBC81808F802C0511C0AB2A11991420A
:102A8000CADC411C08B2E9198142C3DCBDE8F0830D
:102A90000000002070B505460C4645F0B00000F07F
:102AA0005DFA102141EA141000F058FA04F00F000A
:102AB00000F054FA70BD2DE9F047064689461746E6
:102AC0001D46DDF82080002414E0281B411E022052
:102AD000FFF75AFFB7FBF0F000F0010000F1300AF9
:102AE00004FB086108B243465246494600F006F826
:102AF000601CC4B2AC42E8DBBDE8F087F8B506461E
:102B00000F4614461D46082D0CD1A4F120000E4995
:102B100001EB00101023082239460090304600F0E7
:102B2000FDF80FE0062D0DD1A4F1200000EB4000D0
:102B3000064901EB40000823062239460090304642
:102B400000F0ECF8F8BD000022490008124F000820
:102B50002DE9FC4780468946164600270020019053
:102B6000002538E0705D01A9C855781CC7B2032F55
:102B70002FDB002700240BE004EBC401184A02EB12
:102B8000810001A9FDF77AFB00B90BE0601CC4B21B
:102B900004EBC401124A02EB810012A1FDF76EFBA7
:102BA0000028E9D100BF681C032190FBF1F0401E12
:102BB00008EB00100FFA80FA04EBC400084901EB9F
:102BC0008000001D10231A4649460090504600F030
:102BD000A5F8681CC5B2705D0028C3D1BDE8FC87AC
:102BE0004C510008000000002DE9FF5F86B0074649
:102BF00014461D46DDF85080169E002213462046DE
:102C0000294601F011FB06D833462B223846079996
:102C1000FFF774FF07E033462D2238460799FFF788
:102C20006DFF85F000452046294601F06BF982468C
:102C3000504601F0ABF922462B46CDE9040101F0E4
:102C400083FB04460D460A201599FFF79DFE814639
:102C5000484601F09BF922462B46CDE9000101F0E0
:102C6000E5F9CDE9020100F025FECDE9040101F00E
:102C700049F98346BBFBF9F08244B91908B24346CF
:102C800052460096079900F0C7F808F1010101FBD0
:102C9000067108B233462E220799FFF72FFF08F17D
:102CA000020101FB067108B200965A46159B07996E
:102CB00000F0B2F80AB0BDE8F09F2DE9F0470646F3
:102CC0008A4691461F46DDF82080002421E0381B0B
:102CD000411E1020FFF758FEB9FBF0F000F00F0581
:102CE0000A2D0ADA05F13001CAB204FB086108B204
:102CF00043465146FFF702FF09E005F13701CAB22A
:102D000004FB086108B243465146FFF7F7FE601C1A
:102D1000C4B2BC42DBDBBDE8F08700002DE9FF4F09
:102D200080460E469146DDF834B0002500244A4620
:102D300031464046039BFEF7ADFF00BF5EE0002535
:102D400058E008EB0500002852DB08EB05007F285F
:102D50004EDC3046F11706EB5171C9100FB2F11776
:102D600006EB5171C910A6EBC10A002E05DA781ED8
:102D700007B20AF108000FFA80FA3819002817DBA9
:102D80003819072814DC3819224901EBC01008EB68
:102D90000501405C04FB09511BF8011001FA0AF11E
:102DA000084339191B4A02EBC11108EB050288548C
:102DB0003819401C00281BDB3819401C072817DC79
:102DC0003819401C134901EBC01008EB0501405CA9
:102DD00004FB09511BF80110CAF108021141084314
:102DE0003919491C0B4A02EBC11108EB0502885442
:102DF000681CC5B24D45A4DB601CC4B20399481ED3
:102E0000C11700EB5171012202EBE101A14296DCF6
:102E1000BDE8FF8F000000202DE9F04706468946F7
:102E200017461D46DDF82080002417E0281B411EB0
:102E30000A20FFF7A9FDB7FBF0F00A21B0FBF1F281
:102E400001FB120000F1300A04FB086108B243469E
:102E500052464946FFF752FE601CC4B2AC42E5DB65
:102E6000BDE8F0872DE9F04F80468A4615461E469C
:102E7000DDF82490002D07DB4B462B2251464046BF
:102E8000FFF73CFE2F4606E04B462D2251464046BA
:102E9000FFF734FE6F42002418E0301B411E0A2069
:102EA000FFF772FDB7FBF0F00A21B0FBF1F201FB76
:102EB000120000F1300B611C01FB098108B24B4686
:102EC0005A465146FFF71AFE601CC4B2B442E4DB16
:102ED000BDE8F08F2DE9F0410646884615461F46AD
:102EE000002409E02A5D04FB076108B23B46414625
:102EF000FFF704FE601CC4B2285D0028F2D1BDE8D3
:102F0000F081000010B500240BE000212046FFF7FF
:102F1000C1FD054901EBC410802100F02FF8601CB1
:102F2000C4B2082CF1DB10BD0000002010B504462F
:102F300022464FF480710248FEF78EFE10BD00005D
:102F4000000C014010B5044622464FF400710248BF
:102F5000FEF782FE10BD0000000C014010B50446D3
:102F6000FFF76DFC7820FFF74BFC0020FFF748FCD3
:102F70002046FFF745FCFFF770FC10BD70B5054615
:102F80000E46FFF75CFC7820FFF73AFC4020FFF785
:102F900037FC002404E0285DFFF732FC601CC4B25B
:102FA000B442F8DBFFF759FC70BD2DE9F04305464C
:102FB0000C461F46079E4FF0000C00216B1E34E0AC
:102FC00032F91100B04201DD012000E0002032F9A9
:102FD0001380B04502DD4FF0010801E04FF000081A
:102FE00040451FD034F9130034F91180A0EB0800DC
:102FF00032F91180A6EB080800FB08F032F91380C3
:1030000032F91190A8EB090890FBF8F034F911801F
:103010004044B84206DDBCF1000F01D1012000E0C0
:10302000002084460B46481C01B2A942C8DB0CF0C4
:10303000FF00BDE8F083704729B1064A9269024358
:10304000044B9A6104E0034A92698243014B9A61FE
:103050007047000000100240704710B500F002F801
:1030600010BD00000CB500200190009033480068AE
:1030700040F480303149086000BF3048006800F4F7
:10308000003000900198401C0190009818B90198F8
:10309000B0F5A06FF1D12948006800F4003010B1FC
:1030A0000120009001E0002000900098012843D109
:1030B0002348006840F01000214908600846006875
:1030C00020F0030008600846006840F00200086035
:1030D0001A484068194948600846406848600846F0
:1030E000406840F4806048600846406820F47C10E6
:1030F00048600846406840F4E810486008460068A8
:1031000040F08070086000BF0C48006800F000705C
:103110000028F9D00948406820F0030007494860BA
:103120000846406840F00200486000BF034840681D
:1031300000F00C000828F9D10CBD0000001002407E
:10314000002002407047000010B51348006840F0AE
:1031500001001149086008464068104908400E49BE
:103160004860084600680E4908400B490860084658
:10317000006820F4802008600846406820F4FE00C3
:1031800048604FF41F008860FFF767FF4FF0006052
:103190000449086010BD0000001002400000FFF864
:1031A000FFFFF6FE08ED00E000BFFEE7490050EA31
:1031B000C12018BF04204A0D18BF40F0010040F2A2
:1031C000FF72B2EB515F08BF40F00200012808BF58
:1031D000052070472DE9F0414F1E00EBC701044662
:1031E000D1E9000115461E4637F006020DD02A46E9
:1031F000334600F01BFF7F1E04EBC703D3E9002317
:1032000000F000FC37F00602F1D1022F25D0042F88
:1032100013D0062F18BFBDE8F0812A46334600F0D0
:1032200005FFD4E90A2300F0EDFB2A46334600F0FF
:10323000FDFED4E9082300F0E5FB2A46334600F002
:10324000F5FED4E9062300F0DDFB2A46334600F004
:10325000EDFED4E9042300F0D5FB2A46334600F006
:10326000E5FED4E9022300F0CDFB2A46334600F008
:10327000DDFED4E90023BDE8F04100F0C3BB01222C
:1032800001F009BB00F0BEBB024A0020110701F0AB
:1032900002BB000001FDFFFF30380A2801D20120E7
:1032A00070470020704700002DE9F84F04460D4696
:1032B00021F0004000917349814211DC724988423B
:1032C00001DC06D12CB120462946BDE8F84FFFF7B6
:1032D000D6BF6E48002DCCBF6D496E49BDE8F88F52
:1032E0006D49814211DD6D498142D8BF4FF0FF36F3
:1032F0006DDD20462946FFF759FF042808BFFFF778
:10330000C3FF20462946BDE8F88F6549654F25F083
:103310000045814233DD6449814219DD0026324691
:103320004FF080432046294600F06CFB80468A46D9
:1033300001222046294601F0AEFA00223B4601F068
:103340000FF84246534600F019FC04460D463EE095
:1033500001260022BA463B462046294600F052FB91
:1033600080460F46002253462046294600F0F8FFCB
:1033700042463B4600F002FC04460D4627E04B491E
:1033800081421BDDDFF828A1022600225346204699
:10339000294600F04BFE00223B4600F033FB8046FE
:1033A0000F46002253462046294600F0D9FF4246E8
:1033B0003B4600F0E3FB04460D4608E003262246A8
:1033C0002B4600203B4900F0D9FB04460D4622461F
:1033D0002B461046194600F029FE8B4682460246CF
:1033E0000B4600F023FE07460246334888460B464C
:1033F00006217844FFF7EEFE52465B4600F016FECB
:1034000082462E488B463A46434605217844FFF7CC
:10341000E1FE3A46434600F009FE02460B46002E06
:10342000504659460CDA00F0EDFA22462B4600F0E1
:10343000FDFD01B022462B46BDE8F04F00F084BFF1
:1034400000F0E0FA22462B4600F0F0FD1C4A7A44D8
:1034500002EBC603D3E9002300F082FF22462B468D
:1034600000F07EFF174A7A4402EBC603D3E900233B
:1034700000F06AFF009A002AB8BF81F00041BDE861
:10348000F88F0000000010440000F07F182D445415
:10349000FB21F93FFB21F9BF0000DC3F0000203E8B
:1034A0000000F33F0000F03F0000E63F00800340D3
:1034B0000000F83F0000F0BF221F0000E01E0000E7
:1034C0007E1E0000461E00002DE9F04D9446CCF112
:1034D000000423F000464CEA0404594F46EAD47431
:1034E0009A46884621F00042BC4206D8454240EA4E
:1034F000050442EAD474BC4204D9BDE8F04D6246EA
:10350000FFF7C0BEAAF14055A5F17F6555EA0C044E
:103510000BD0022404EAAA744A4DDFF82CE144EAF5
:10352000D87452EA000B04D00CE0BDE8F04DFFF770
:10353000BBBE002C14BF012CBDE8F08D022C30D096
:10354000032C32D056EA0C0B0AD0BE4220D1BA422C
:1035500009D126F0804622F080423346114617E01A
:1035600000291ADB25E0DFF8E4B0FB44002C04BF9F
:10357000DBE90001BDE8F08D012C02BFDBE90001B1
:1035800081F00041BDE8F08D022C0AD0032C0CD054
:10359000BA4212D1B8F1000F0BDA2A482C49BDE823
:1035A000F08D28462B49BDE8F08D28467146BDE8D0
:1035B000F08D24482849BDE8F08D921B12153C2A55
:1035C000C4BF204F244E10DCBAF1000FBEBF12F171
:1035D0003C0F00273E4608DB624600F0CFFA21F0A0
:1035E0000041FFF761FE07460E4694B1012C08BF6B
:1035F00086F000460DD0194A194B022C3846314648
:1036000015D000F0ADFE2A46BDE8F04D114B00F09C
:10361000A7BE002213463846314600F007FC04BF1F
:103620000220FCF773FE38463146BDE8F08D00F00D
:1036300097FE2A46BDE8F04D064B00F085BE00001F
:103640000000F07F182D4454FB2109C0DA1D000052
:10365000FB21F9BFFB210940FB21F93F075C143333
:1036600026A6A13C0EB5FFF703F90823412200214D
:103670000846FFF743FA08237EA200211020FFF737
:1036800029FC0623412212210020FFF737FA0623E6
:1036900078A212211020FFF71DFC0620052343F21B
:1036A00039021C2100900020FFF7B6FB0620022300
:1036B0006FF041021C2100902820FFF7D3FB062069
:1036C00004234AF2A5521C2100904620FFF7F5FA88
:1036D00006200823A522262100900020FFF7EBF901
:1036E000062002210322CDE900210290654A664BA3
:1036F00026213C20FFF778FA64A230210020FFF752
:1037000027FA674810231A46302100906020FFF7FF
:1037100005FB062063A30246122100906020FFF7FC
:103720003DF9FFF7EFFB40F6B830FEF7E7F9FEF79B
:103730009DFA08210520FEF72DFF08210520FFF73F
:103740003DF830B1062359A204210A20FFF7C2FB3D
:1037500005E0062356A204210A20FFF7BBFB0F2336
:103760007F2200212820FEF759FE00237F220F210F
:103770002820FEF753FE00200F230C221421009076
:10378000FEF730FF01200F230C222821009000209B
:10379000FEF728FF002023211E221923CDE9002156
:1037A0000290282214210846FEF763FF01203721EA
:1037B0001E222D23CDE9002102902822114614203B
:1037C000FEF757FF002308221B213720FEF7DFFBFF
:1037D000012308222F213720FEF7D9FB00200823E0
:1037E0000C221B2100905220FEF782FC01200823AE
:1037F0000C222F2100905220FEF77AFC00207D2120
:1038000019230F22CDE9001012216E20FEF78AFA4B
:1038100001207D2119230F22CDE9001026216E20E1
:10382000FEF780FAFFF76EFB40F6B830FEF766F958
:103830001FE0002413E02101102380220020FFF765
:10384000E1F8FFF75FFB4FF47A70FEF757F92101BB
:10385000102380220020FFF7D5F8601CC4B2042C8E
:10386000E9DBFFF7B5F8FFF74DFB4FF47A70FEF791
:1038700045F9DEE748656C6C6F20576F726C642108
:1038800000000000CDCCCCCCCCDC5E40E4BDA0E59B
:10389000A5BDEFBC8CE4B896E7958CE38082000070
:1038A000485200085B253032645D000059455300E2
:1038B0004E4F20002DE9F04D07460E4600F0EAFC81
:1038C00004460D463A46334600F03EFDDFF86CA054
:1038D000DFF86CB01B4B0746884616F0004F4FF0E0
:1038E00000020AD000F066FB0AD900225B46384687
:1038F000414600F099FC1BD212E000F05BFB08D2BD
:10390000002253462046294600F02AFD04460D4673
:103910000EE000225B463846414600F085FC07D8A1
:10392000002253462046294600F06CF804460D4616
:103930003146204665F31E01BDE8F08D0000F03FE2
:103940000000E03F0000E0BF10B500290AD0087871
:10395000002807D005487844FCF790FC002801D0E7
:10396000002010BD0248784410BD0000C61A0000B7
:10397000BE1A000010B500290AD00878002807D028
:1039800005487844FCF77AFC002801D0002010BDDF
:103990000248784410BD0000B61A0000AE1A0000BC
:1039A00021F00042A2F16052B2F5801F01F0004305
:1039B00028BFD2F17F6C0BD95FEA001C43EAC20238
:1039C00042EB507018BF704728BF20F001007047CD
:1039D000B2F5801FBCBF184670474FEA410C1CF57A
:1039E000001F02D2084600F0A5BE70B500F0C8FB6B
:1039F00000000089FFF7F6BF4FF00040A0F58000FF
:103A00007047000010B591EA030F48BF83F00043F0
:103A100000F1AE84841A71EB030C05D2121943EB4A
:103A20000C03001B61EB0C01DFF824E14FEA115499
:103A3000A4EB135C1EEA430F18BF9EEA445F73D0E9
:103A400023EA0E03DCF1200E21EA045143F4801333
:103A500032D322FA0CFE10EB0E0023FA0CFE41EBDF
:103A60000E01CCF1200E03FA0EFE10EB0E0051F108
:103A70000001B1F5801FCCF1200E32D201EB0451D0
:103A800012FA0EF2BDE8104058BF7047401C38BF14
:103A90005FEA420218BF7047002814BF20F00100FF
:103AA00041F100014FEA410313F5001F38BF704791
:103AB000A1F1C04100F0B2BB012A43EB0302ACF11B
:103AC000200CDCF11F0E32BF4FF0000E23FA0CF376
:103AD00010EB030041EB0451B4EB115FD0D0A1EB2C
:103AE000045101F5801149085FEA300001EB0451EF
:103AF0000ED350F1000038BF12FA0EFE08D1BDE817
:103B00001040C9E7401C38BF5FEA4202CAD1C3E790
:103B1000BDE810404FEA410313F5001F38BF70475E
:103B2000A1F1C04100F07ABB9EEA445F08D011EADF
:103B30005E0FBDE8104004BF01F000410020704757
:103B4000BDE8104070B500F01BFB00BF64FBBE3E3B
:103B50000000E0FF02494FF0000000F06ABE00BF25
:103B60000000F87F491058BFC1F140415B1058BFB9
:103B7000C3F140438B42EFF3008070472DE9C04111
:103B800030B4DFF8A0C23CEA111418BF3CEA1314A9
:103B900000F0EC8081EA03051CEA111444EAD574B4
:103BA00018BF1CEA131500F0C780A4EB05044FF002
:103BB000004545EAC12145EAC32341EA505143EAA1
:103BC000525304F17F74994204F500344FEAC02047
:103BD0004FEAC22208BF904200F09C804FEA136572
:103BE0000FF24016765D4FEA134506FB05F7C7F165
:103BF000807706FB07F74FEAD737A7FB03687642C3
:103C0000C8F58038A7FB06CE38BFA8F1010807FB2E
:103C100008E64FF0000EA6FB028CE6FB03CEDCF1BB
:103C2000000CCEF1004E38BFAEF1010EA6FB0C58D1
:103C30004FF000074FF00005E6FB0E87A1FB08C61A
:103C4000A0FB07CE16EB0E0645F10005E1FB07656C
:103C500015F1E04E7EBFA4F580345FEA46066D4163
:103C600016F1800745F100054FEA17274FEA06666F
:103C700047EA0567A6F1DE46B6F1805F4FEA1525F3
:103C80001FD9384624F0010C05EBC471BCF1FE6F5E
:103C900001EB0C1102D8F0BCBDE8008124425CBFEE
:103CA00001F5801E9EEAC47F02D4F0BCBDE800810D
:103CB000244238D4F0BCA1F1C041BDE8004100F07D
:103CC000ADBA4FEAD22242EA43524FEAD323A7FBCE
:103CD00002864FEAD02040EA415007FB03661EEA05
:103CE0000E0F4FEAD12105FB026658BFA6EB005626
:103CF000B6EB00564FEA520E4EEAC37E18EB0E0E9C
:103D000056EB530EBDD518EB02085E417F1C55F1F2
:103D10000005B6E74FF480154FF000074FF000069E
:103D20004FF00008ADE7F0BC4FF0000001F1C041DA
:103D300001F00041BDE8008111EA0C1F0CEA1315E7
:103D400000D00CE013EA0C1F00F025804FF00000BB
:103D5000F0BC81EA030101F00041BDE80081F0BC44
:103D6000BDE8004181EA030100F058BAF0BCBDE8AB
:103D7000004170B500F004FA097EFC3E00F007B87F
:103D800081EA03014FF0000001F00041704781EA31
:103D9000030100F043BAF0BCBDE800414FF0000061
:103DA00021497047FFFDFBF9F7F5F4F2F0EEEDEB7A
:103DB000E9E8E6E4E3E1E0DEDDDBDAD8D7D5D4D329
:103DC000D1D0CFCDCCCBCAC8C7C6C5C4C2C1C0BF75
:103DD000BEBDBCBBBAB9B8B7B6B5B4B3B2B1B0AF7B
:103DE000AEADACABAAA9A8A8A7A6A5A4A3A3A2A15F
:103DF000A09F9F9E9D9C9C9B9A999998979796951A
:103E000095949393929191908F8F8E8E8D8C8C8BB5
:103E10008B8A89898888878786858584848383823D
:103E2000828181800000FF070000F87F51EA030CC7
:103E300017D41CF5801F58BFBCF5801F00F1068009
:103E4000994218BF704708BF9042704707D711F5D5
:103E5000801F58BF13F5801F19D4994270478942BB
:103E600070471CF5801F08D5BCF5801FF7D58B4225
:103E700018BF704708BF824270474FF4001C1CEB0C
:103E8000410F38BF1CEB430F01D28B42704770B516
:103E900000F076F9922449004FF000514FF0805322
:103EA000FFF760BE4FEA41034FEA5353A3F5806327
:103EB000D3F11E03C8BFD3F1210C0CDD4FF000423B
:103EC00042EAC12242EA505232FA03FC8CEAE17C17
:103ED000ACEBE1707047102BC4BF0020704703F5B6
:103EE000787CBCF1FF3F04D06FF0004282EA2100F1
:103EF000704770B500F044F9499224800020704763
:103F0000F2E700004FEA1153A3F58063D3F11E03DB
:103F1000A8BFD3F1200C08DB4FF0004242EAC122D7
:103F200052EA505232FA03F0704709420BD4102B78
:103F3000C4BF0020704703F5787CBCF1FF3F05D07B
:103F40004FF0FF3070474FF00000704770B500F041
:103F500017F900BF4992248000207047F0E710F065
:103F6000004248BF4042B0FA80F310FA03F10AD091
:103F7000C3F11D0303F580634FEA415002EB035286
:103F800002EBD12170474FF000007047B0FA80F388
:103F900010FA03F10AD0C3F11D0303F580634FEA61
:103FA00041504FEA035202EBD12170474FF000001D
:103FB0007047000051EA030C17D41CF5801F58BF4E
:103FC000BCF5801F00F10680994218BF704708BFFA
:103FD0009042704707D711F5801F58BF13F5801F17
:103FE00019D499427047894270471CF5801F08D543
:103FF000BCF5801FF7D58B4218BF704708BF8242BF
:1040000070474FF4001C1CEB410F38BF1CEB430FF3
:1040100001D28B42704770B500F0B2F8922449008B
:104020004FF000514FF08053FFF79CBDDFF848C1BF
:1040300070B51CEA111E1EBF1CEA13159EEA0C0F78
:1040400095EA0C0F00F06F8081EA030423EA4C1319
:104050004EEAD47E21EA4C1141F4801143F48013DE
:10406000AE44A1FB024CA0FB0365AEF17F7E361986
:1040700055EB0C05A1FB034C4CF10003A0FB021C0B
:1040800016EB0C06654153F10003094218BF46F0D8
:10409000010613F4007F0BD14FEA03314FEA0530DC
:1040A000340341EA155140EA16506FF003020AE06A
:1040B0004FEAC3214FEAC520F40241EA555140EAD4
:1040C00056506FF0020202EB2E4201EB025585EAD8
:1040D000CE710AD05FEA440C18BF24F0004450F1BE
:1040E000000041F1000120EAD47040F2FE7C6245FC
:1040F00000D270BDA84214BF4FF080444FF040443E
:10410000002E08BF0024BEF1806FA8BFA1F1C041FE
:10411000BDE8704080F282804FF0000001F1C041A4
:1041200001F0004170479EEA0C0F0CEA131518BF0E
:1041300095EA0C0F06D04FF0000081EA030E0EF056
:10414000004170BD00F01CF88900013E00F007B886
:1041500000F009B84FEA430C5FEA5C5C08D081EAE2
:10416000030100F05BB84FEA410C5FEA5C5CF6D1FA
:104170004FF00000014970470000FF070000F87F82
:104180000EF1020E2EF0030E5EF8046B364205D4DB
:10419000012A43EB030515F5001F12D8012841EB56
:1041A000010C1CF5001F0CD80ED14FEAD17C15F57F
:1041B000001F0CEB4C0C0CF1020C08BF4CEBD37C39
:1041C00004E04FF0080C01E04FEAD37C0CEB4C0507
:1041D00026FA05F606F00706B6F1040C06D20EEB39
:1041E000860CBDE870404CF0010C6047DFE80CF035
:1041F000090B02024FF000414FF00000A1F5002131
:1042000070BD19461046012851EB010418BFD4F5C2
:10421000001484BF002001F0004170BD0808A0F523
:1042200000114FEA3101704753EA010C17D41CF515
:10423000801F58BFBCF5801F00F106808B4218BF5D
:10424000704708BF8242704707D713F5801F58BFD9
:1042500011F5801F19D48B4270479B4270471CF5A3
:10426000801F08D5BCF5801FF7D5994218BF70474D
:1042700008BF904270474FF4001C1CEB430F38BF3F
:104280001CEB410F01D2994270470FB40CBC03BC28
:10429000FFF7C1BE5FEA410C5FEA5C5CACF580638E
:1042A0005B1C39D4D3F1340240F34580B2F12003D2
:1042B00014DA4FF0010C0CFA02FCACF101030340DC
:1042C000B3EB5C0220EA030008BF10EA0C0F98BFB2
:1042D000704710EB0C0041F1000170470AD0C3F1A8
:1042E000200201FA02FC012821FA03F101FA03F18C
:1042F0004CF100004FF0010C0CFA03FCACF101038F
:10430000B0F1004F21EA030108BF11EA0C0F4FF092
:10431000000088BF61447047B3F1FF3F28BF50EAF7
:10432000C12C01F000414FF0000084BF41F07C51EE
:1043300041F470017047B3F5806FB8BF704770B536
:10434000FFF71EFF40DBB6BE91EA030F10B581F008
:1043500000413FF55FAB83F0004300F009B8000077
:1043600010B591EA030F48BF83F000433FF552AB0D
:10437000841A71EB030C07D212198CF0004C43EB3A
:104380000C03001B61EB0C01DFF8A4E14FEA1154B0
:10439000A4EB135C1EEA430F18BF9EEA445F00F0D3
:1043A000B08023EA6E03524221EA0451C3EB6E034C
:1043B00038BF5B1EDCF1200E25D322FA0CFE10EB79
:1043C0000E0043FA0CFE41EB0E01CCF1200E03FA75
:1043D0000EFE10EB0E0051F10001CCF1200E29D49D
:1043E00012FA0EF201EB0451BDE8104058BF7047BD
:1043F000401C1CBFB2F1004F704700280CBF491C85
:1044000020F00100704712EB020E43EB030218BFCD
:104410004FF0010E4EEA4202ACF1200CDCF11E0E10
:1044200054D943FA0CFE10EB0E0051F1FF31CCF1E0
:104430001E0ED5D50EF1010E12FA0EFE404141EBD3
:10444000010101EB445C5FEA5C5C10D910EBDE70AB
:1044500001EB045138BFBEF1004FBDE8104018BF5A
:10446000704700280CBF491C20F00100704730D273
:104470004FEAD42C11F5001124F400641BD0B1FADA
:1044800081F20B3AA41AA41ED2F12003914030FA13
:1044900003F31943904001EBCC71002C01EB045164
:1044A000BDE81040A8BF704701F1C0414FF00000C7
:1044B00001F000417047B0FA80F310FA03F100D127
:1044C00010BDE41A173C4805C90AE4E701EB0451A2
:1044D00010BD491001EB0451BDE810404FEA300017
:1044E00002E04FF0000170474A0008BF0042F8D0D8
:1044F000B2F5001F28BF704701F000414FF00000E7
:1045000070479EEA445F07D011EA5E0FBDE8104095
:1045100004BF002100207047BDE8104070B5FFF7D0
:104520002FFE00BF40DFF63E83F00041104670478B
:104530000000E0FF90EA010F48BF81F0004100F168
:104540000681421A3CBF801A89184FEAD0524FF0B8
:104550007F4C1CEA410FA2EBD15318BF9CEA026FBB
:1045600000F03B804FF0004C4CEA00204CEA012167
:1045700021FA03FC10EB0C0C1ED202F1FF325FEAB1
:104580001C2040EBC25038BF70471CF07F0F4FEA31
:10459000400C18BFBCF17F4F38BF7047C3F12003F8
:1045A000994008BF20F00100BCF17F4F38BF704731
:1045B000A0F1C04000F0BEB84FEA3C00000A40EB5A
:1045C000C25028BF1CF0FF0F4FEA400CE6D018BFC6
:1045D000BCF17F4F38BF7047EAE79CEA026F05D015
:1045E00010EA5C0F08BF00F00040704710B500F003
:1045F0005BF800BF64FBBE3E401058BFC0F14040B6
:10460000491058BFC1F140418142EFF3008070472B
:1046100010F0004148BF4042B0FA80F310FA03F2B4
:10462000C3F19D030BD051EAC35101EB1220530695
:1046300038BF704700F1010008BF20F0010070474B
:1046400050EA010C00F113801CF5000F58BFBCF5B7
:10465000000F01D48842704707D710F5000F58BFEC
:1046600011F5000F15D488427047894270471CF538
:10467000000F04D5BCF5000FF7D5814270474FF00D
:10468000807C1CEB400F38BF1CEB410F01D28142F4
:10469000704710B500F008F8922449004FF0005020
:1046A0004FF08051FFF7A8BF0EF1020E2EF0030E5F
:1046B0005EF8044B244204D44FEA4102B2F17F4F2A
:1046C00011D84FEA4003B3F17F4F0CD80ED14FEA17
:1046D000D07CB2F17F4F0CEB4C0C0CF1020C08BFFC
:1046E0004CEBD17C04E04FF0080C01E04FEAD17CA8
:1046F0000CEB4C0324FA03F404F00704B4F1040CAB
:1047000006D20EEB840CBDE810404CF0010C604763
:10471000DFE80CF0070802024FF00040A0F580002F
:1047200010BD0846420018BFD2F1807288BF00F069
:10473000004010BDFF2141EAD050C0057047000085
:1047400090EA010F48BF81F000413FF5FAAE421AEE
:1047500004D882F00042A0EB020011444FEAD0528C
:104760004FF07F4C1CEA410FA2EBD15318BF9CEADB
:10477000026F4AD04FF0004C4CEA00204CEA012175
:1047800021FA03FCB0EB0C0C0FD412F0FE0F36D064
:104790005FEA4C001DD5001240EBC25038BF704795
:1047A0001CF03F0F18BF70470BE0A2F101025FEA57
:1047B0001C2040EBC25038BF70471CF07F0F18BF61
:1047C0007047C3F12003994014BF401E20F0010040
:1047D000704780084FEA122308BF7047B0FA80FC88
:1047E000A2EB0C02CCF1280C60FA0CF093EA122F29
:1047F00004BF00EBC25070474FEAC3707047130A02
:104800005FEADC1008BF7047F6E79CEA026F04D04D
:1048100010EA5C0F08BF0020704710B5FFF744FF97
:1048200040DFF63E81F000407047FCF7A2B9FCF78C
:10483000D7BA0CF00F03092B08BF082000F05980ED
:104840000A2B0BD0082B18BF704708BF1CF0400F75
:104850000AD04FF000004FF0000170471CF0400FED
:1048600018BF4FF0004070471CF0100F08D020F028
:10487000704300F07F4242EAD3014FEA4370704731
:1048800000F0604021F07F4242EA000201F07F40E8
:1048900040EA727070474FF0FF0C4CF4E06C1CEA79
:1048A00011531CBF9CEA030C9445C2BFDA4201EBD2
:1048B00002517047002B0DD0BCF1000F0FD0002A21
:1048C00001F00041A4BF41F0E04141F07F614FF0B1
:1048D0000000704701F000414FF00000704750EABF
:1048E00001334FF09B0C18BF4CF0806C7FF432A961
:1048F00070471CF4801F11D01CF4E02F03D06FEA26
:10490000CC31490070474FF04050EFF3008222F065
:10491000704242EA000282F3008870474FF00000C4
:1049200070470000000000000000000000000000D0
:104930000000000000F8000000000000003330001C
:10494000000000160E00160E00000000000000001F
:10495000000040C07840C0784000043F04043F0499
:104960000400007088FC08300000001820FF211EA1
:104970000000F008F000E018000000211C031E21D8
:104980001E0000F00888700000001E212324192753
:104990002110000000160E000000000000000000C2
:1049A0000000000000E018040200000000071820CA
:1049B000400000020418E00000000040201807003A
:1049C0000000404080F0804040000202010F0102E0
:1049D0000200000000F0000000000101011F0101C1
:1049E0000100000000000000000000B070000000A6
:1049F00000000000000000000000000101010101B2
:104A00000101000000000000000000303000000044
:104A1000000000000000806018040060180601001B
:104A2000000000E010080810E000000F1020201027
:104A30000F00001010F8000000000020203F202090
:104A40000000007008080888700000302824222127
:104A500030000030088888483000001820202011DD
:104A60000E000000C02010F8000000070424243FBE
:104A7000240000F808888808080000192120201167
:104A80000E0000E0108888180000000F112020118F
:104A90000E0000380808C83808000000003F000079
:104AA00000000070880808887000001C2221212264
:104AB0001C0000E010080810E00000003122221164
:104AC0000F00000000C0C0000000000000303000F7
:104AD0000000000000C0C0000000000080B07000B6
:104AE00000000000804020100800000102040810AF
:104AF00020004040404040404000040404040404BE
:104B0000040000081020408000000020100804026B
:104B10000100007048080808F0000000003036016D
:104B20000000C030C828E810E0000718272423142C
:104B30000B000000C038E0000000203C23020227E8
:104B4000382008F8888888700000203F2020201135
:104B50000E00C03008080808380007182020201070
:104B6000080008F808080810E000203F2020201066
:104B70000F0008F88888E8081000203F2020232034
:104B8000180008F88888E8081000203F200003007B
:104B90000000C03008080838000007182020221E36
:104BA000020008F808000008F808203F2101012150
:104BB0003F20000808F8080800000020203F2020BF
:104BC000000000000808F8080800C08080807F000E
:104BD000000008F888C028180800203F2001263867
:104BE000200008F8080000000000203F20202020BE
:104BF000300008F8F800F8F80800203F003F003FB8
:104C0000200008F830C00008F808203F20000718EE
:104C10003F00E01008080810E0000F1020202010CE
:104C20000F0008F808080808F000203F21010101E2
:104C30000000E01008080810E0000F182424385085
:104C40004F0008F8888888887000203F2000030CF7
:104C50003020007088080808380000382021212200
:104C60001C00180808F8080818000000203F200061
:104C7000000008F808000008F808001F2020202085
:104C80001F000878880000C83808000007380E01A7
:104C90000000F80800F80008F800033C0700073C93
:104CA0000300081868808068180820302C03032C43
:104CB00030200838C800C83808000000203F200015
:104CC000000010080808C8380800203826212020D5
:104CD0001800000000FE020202000000007F4040B9
:104CE0004000000C30C00000000000000001063849
:104CF000C00000020202FE000000004040407F00B1
:104D0000000000201008040810200000000000002F
:104D10000000000000000000000080808080808093
:104D20008080000204080000000000000000000075
:104D300000000000808080800000001924222222D0
:104D40003F2008F8008080000000003F1120201163
:104D50000E000000008080800000000E1120202046
:104D60001100000000808088F800000E1120201043
:104D70003F200000808080800000001F222222222D
:104D80001300008080F0888888180020203F2020B1
:104D900000000000808080808000006B94949493D9
:104DA000600008F8008080800000203F2100002083
:104DB0003F2000809898000000000020203F202025
:104DC0000000000000809898000000C08080807F74
:104DD000000008F8000080808000203F24022D3071
:104DE0002000000808F8000000000020203F2020DC
:104DF00000008080808080808000203F20003F2055
:104E0000003F008080008080000000203F210020C3
:104E10003F200000808080800000001F2020202094
:104E20001F00808000808000000080FFA1202011F2
:104E30000E000000008080808000000E112020A065
:104E4000FF80808080008080800020203F21200023
:104E5000010000008080808080000033242424240E
:104E60001900008080E0808000000000001F2020EA
:104E700000008080000000808000001F20202010A3
:104E80003F20808080000080808000010E30080676
:104E9000010080800080008080800F300C030C3087
:104EA0000F0000808000808080000020312E0E31B5
:104EB0002000808080000080808080818E701806B5
:104EC000010000808080808080000021302C222121
:104ED000300000000000807C020200000000003F63
:104EE000404000000000FF00000000000000FF0044
:104EF00000000002027C800000000040403F0000F3
:104F000000000080404080000080000000000001A0
:104F100001000000000000000000002F0000000061
:104F20000700070000147F147F1400242A7F2A1230
:104F30000023130864620036495522500000000720
:104F4000000000001C224100000041221C0000144F
:104F5000083E08140008083E0808000000A0600091
:104F60000008080808080000606000000020100821
:104F70000402003E5149453E0000427F400000428D
:104F800061514946002141454B31001814127F10F0
:104F9000002745454539003C4A494930000171091F
:104FA000050300364949493600064949291E0000D3
:104FB000363600000000563600000008142241007A
:104FC00000141414141400004122140800020151AA
:104FD0000906003E4955592E007C1211127C007FB3
:104FE00049494936003E41414122007F4141221C4E
:104FF000007F49494941007F09090901003E4149B3
:10500000497A007F0808087F0000417F41000020A6
:1050100040413F01007F08142241007F4040404052
:10502000007F020C027F007F0408107F003E414198
:10503000413E007F09090906003E4151215E007F83
:10504000091929460046494949310001017F0101FA
:10505000003F4040403F001F2040201F003F40389D
:10506000403F0063140814630007087008070061DC
:105070005149454300007F414100000204081020CF
:10508000000041417F000004020102040040404052
:105090004040000001020400002054545478007F76
:1050A0004844443800384444442000384444487F4D
:1050B00000385454541800087E0901020018A4A4B2
:1050C000A47C007F080404780000447D4000004078
:1050D00080847D00007F102844000000417F400054
:1050E000007C04180478007C0804047800384444E8
:1050F000443800FC242424180018242418FC007CC4
:105100000804040800485454542000043F4440203C
:10511000003C4040207C001C2040201C003C4030D3
:10512000403C004428102844001CA0A0A07C00445F
:1051300064544C440000087F41000000007F0000E0
:105140000000417F0800000804081008EFBC8C0034
:10515000000000000000000000000000000000004F
:1051600000005838000000000000000000000000AF
:10517000E38082000000000000000000000000004A
:1051800000000000000018242418000000000000A7
:1051900000000000E4BDA000008060F80740201877
:1051A0000F08C80808281800010000FF00100C03B1
:1051B00040807F0001061800E5A5BD001010F01F1B
:1051C00010F000808282E2928A86800040221508D8
:1051D0001661000040807F0000000000E4B89600E7
:1051E000202020FE2020FF202020FF202020200043
:1051F0000000007F40404744444447404040000096
:10520000E7958C00000000FE929292FE929292FE30
:105210000000000008080484621E010001FE020470
:105220000408080000000000FF010101310909091C
:1052300009897101010101FFFF80808080808096D3
:1052400081808080808080FFFF01818181FD899144
:10525000A1C1FD81818101FFFF808080809F8884C2
:1052600082819F80808080FF00000000000000009D
:10527000303132333435363738394142434445468C
:105280004030580030313233343536373839616286
:105290006364656640307800040000080000000088
:1052A00000000002000100001000000000000000EB
:1052B0004FBB610567ACDD3F182D4454FB21E93F2E
:1052C0009BF681D20B73EF3F182D4454FB21F93F1D
:1052D000E2652F227F2B7A3C075C143326A6813CA3
:1052E000BDCBF07A8807703C075C143326A6913C4E
:1052F000C4EB98999999C9BF711623FEC671BCBFBA
:105300006D9A74AFF2B0B3BF9AFDDE522DDEADBF21
:105310002F6C6A2C44B4A2BF0D5555555555D53F39
:10532000FF8300922449C23F6E204CC5CD45B73F54
:10533000513DD0A0660DB13FEB0D76244B7BA93FCC
:1053400011DA22E33AAD903F0000000000000000B7
:1053500030313233343536373839616263646566EB
:105360007870003031323334353637383941424382
:10537000444546585000000002400000000000A0D4
:105380000000000005400000000000C80000000010
:105390000C4000000000409C00000000194000008C
:1053A0000020BCBE0000000034400000BFC91B8EBE
:1053B00000000004B5400000504BCFD06607E2CF9C
:1053C000010000006C4100003E8251AADFEEA734CC
:1053D00001000000D9420000DCB5A0E23A301F977E
:1053E000FFFFFFFFB4450000FD25A0C8E9A3C14FA2
:1053F000FFFFFFFFFF3F00000000008000000000F3
:10540000FF3F000000000080000000004855000839
:1054100000000020600A0000280100081C000000B5
:1054200043000000F8FFFFFF0C0000000E0000002A
:105430000F0000002E0000001001000043000000DB
:10544000F8FFFFFF004040404040404040404141A5
:105450004141414040404040404040404040404049
:1054600040404040400502020202020202020202E3
:1054700002020202022020202020202020202002E0
:105480000202020202029090909090901010101070
:10549000101010101010101010101010101010100C
:1054A00002020202020288888888888808080808A0
:1054B000080808080808080808080808080808086C
:1054C0000202020240000000000000000000000094
:1054D00000000000000000000000000000000000CC
:1054E00000000000000000000000000000000000BC
:1054F00000000000000000000000000000000000AC
:10550000000000000000000000000000000000009B
:10551000000000000000000000000000000000008B
:10552000000000000000000000000000000000007B
:10553000000000000000000000000000000000006B
:08554000000000000000000063
:04000005080000ED02
:00000001FF
