:020000040800F2
:10000000600A00206D010008C9040008C50300084B
:10001000C903000843020008F908000800000000B6
:10002000000000000000000000000000A907000818
:100030004702000800000000870700089508000834
:100040008701000887010008870100088701000870
:100050008701000887010008870100088701000860
:100060008701000887010008870100088701000850
:100070008701000887010008870100088701000840
:100080008701000887010008870100088701000830
:100090008701000887010008870100088701000820
:1000A0008701000887010008870100088701000810
:1000B0008701000887010008870100088701000800
:1000C00087010008870100088701000887010008F0
:1000D00087010008870100088701000887010008E0
:1000E00087010008870100088701000800F002F876
:1000F00000F02CF80AA090E8000C82448344AAF196
:100100000107DA4501D100F021F8AFF2090EBAE893
:100110000F0013F0010F18BFFB1A43F0010318473B
:100120004823000058230000002300240025002657
:10013000103A28BF78C1FBD8520728BF30C148BF4A
:100140000B6070471FB51FBD10B510BD00F044F81F
:100150001146FFF7F7FF00F053FF00F062F803B419
:10016000FFF7F2FF03BC00F065F800000948804784
:1001700009480047FEE7FEE7FEE7FEE7FEE7FEE789
:10018000FEE7FEE7FEE7FEE704480549054A064BA1
:100190007047000099080008ED0000086004002086
:1001A000600A00206006002060060020704770474B
:1001B000704710B500F008F8006810BD10B504468F
:1001C00000F002F8046010BD0048704700040020F1
:1001D00000487047000400207546FFF7F9FFAE465F
:1001E00005006946534620F00700854618B020B543
:1001F000FFF7CAFFBDE820404FF000064FF00007B0
:100200004FF000084FF0000B21F00701AC46ACE8BE
:10021000C009ACE8C009ACE8C009ACE8C0098D462B
:10022000704710B50446AFF300802046BDE810408B
:10023000FFF795BF01491820ABBEFEE7260002007C
:10024000704700BFFEE7704700B5034603E04FF478
:100250007A7000F005F8181EA3F10103F7D100BD74
:1002600000EBC001C9004FF0E02251610021916113
:100270000521116100BF4FF0E021096901F48031CF
:100280000029F8D004214FF0E022116170472DE9D8
:10029000F04102460025002600200023002400270C
:1002A00091F803C00CF00F0591F803C00CF0100C8E
:1002B000BCF1000F03D091F802C04CEA050591F89B
:1002C00000C0BCF1000F31D0146800202BE04FF0CB
:1002D000010C0CFA00F3B1F800C00CEA03069E42D0
:1002E00020D183004FF00F0C0CFA03F7BC4305FA42
:1002F00003FC4CEA040491F803C0BCF1280F06D1BA
:100300004FF0010C0CFA00FCC2F814C00AE091F89E
:1003100003C0BCF1480F05D14FF0010C0CFA00FCF2
:10032000C2F810C0401C0828D1D31460B1F800C036
:10033000BCF1FF0F34DD546800202EE000F1080C02
:100340004FF0010808FA0CF3B1F800C00CEA0306FC
:100350009E4221D183004FF00F0C0CFA03F7BC43EF
:1003600005FA03FC4CEA040491F803C0BCF1280F21
:1003700005D100F1080C08FA0CF8C2F8148091F8C5
:1003800003C0BCF1480F07D100F1080C4FF0010881
:1003900008FA0CF8C2F81080401C0828CED354602C
:1003A000BDE8F0810246002093680B400BB10120AC
:1003B00000E000207047016170470AB1016100E070
:1003C0004161704700BFFEE700BFFEE708B50121AD
:1003D000082000F0D9F914208DF803004FF4407084
:1003E000ADF8000003208DF8020069460448FFF7CD
:1003F0004EFF4FF440710248FFF7DDFF08BD0000DB
:10040000000C014010B54FF400710348FFF7CAFF1C
:100410000446204610BD0000000C014010B501202C
:1004200000F046F8012000F037F8FFF7EBFF044634
:10043000002000F031F8204610BD70B505460024BC
:100440000DE08021214101EA050000F031F8012092
:1004500000F022F8002000F01FF8601CC4B2082C45
:10046000EFDB70BD10B5012000F022F8012000F094
:1004700013F8002000F01CF8002000F00DF810BD6B
:1004800010B5002000F014F8012000F005F801205C
:1004900000F00EF810BD000010B5044622464FF4DF
:1004A00080710248FFF789FF10BD0000000C014079
:1004B00010B5044622464FF400710248FFF77DFF55
:1004C00010BD0000000C01407047000000200CE04F
:1004D000002106E00022064B03EBC0135A544A1CCD
:1004E000D1B28029F6DB411CC8B20828F0DB704786
:1004F000000000202DE9F04F89B005460C46164655
:100500009946701B01F03AFD0746A9EB040001F083
:1005100035FD8046394601F06FFC8346584601F0B0
:10052000DDFB21F0004107460022324B01F016F9B5
:100530002ED2B54205DDAA4635465646A2464C4661
:10054000D1462F4621E0781B01F018FD5946009056
:1005500001F040FD0290204601F028FD0190029933
:1005600001F0E8FB039001F0B9FBCDE9040100F0D4
:10057000BFFDCDE9060101F099F800F0FF08414602
:10058000384600F039F8781CC7B2B742DBDD2DE001
:100590004C4505DDAA4635465646A2464C46D14650
:1005A000274621E0381B01F0E9FC5946009001F094
:1005B00023FC0290284601F0F9FC0190029901F019
:1005C000B9FB039001F08AFBCDE9040100F090FD36
:1005D000CDE9060101F06AF800F0FF08394640460F
:1005E00000F00AF8781CC7B24F45DBDD09B0BDE862
:1005F000F08F00000000F03F70B50346CC1701EB10
:100600005474E4100B4D05EBC414E45C0A46CD179A
:1006100001EB5575ED10A1EBC5060125B5402C4346
:100620000846CD1701EB5575ED10024E06EBC515CA
:10063000EC5470BD0000002010B5FFF7C7FE642029
:10064000FFF702FEAE2000F06BF8D52000F068F84E
:10065000802000F065F8A82000F062F83F2000F04C
:100660005FF8D32000F05CF8002000F059F840203B
:1006700000F056F8A12000F053F8C82000F050F820
:10068000DA2000F04DF8122000F04AF8812000F046
:1006900047F8CF2000F044F8D92000F041F8F120CD
:1006A00000F03EF8DB2000F03BF8302000F038F896
:1006B000A42000F035F8A62000F032F88D2000F0DC
:1006C0002FF8142000F02CF8AF2000F029F8642057
:1006D000FFF7BAFD10BD70B504460D4604F00F00DB
:1006E00000F01EF8102141EA141000F019F845F04E
:1006F000B00000F015F870BD10B500240BE02146E5
:100700000020FFF7E8FF054901EBC410802100F04D
:100710001DF8601CC4B2082CF1DB10BD00000020E5
:1007200010B50446FFF79EFE7820FFF786FEFFF720
:1007300075FE0020FFF781FEFFF770FE2046FFF7F1
:100740007CFEFFF76BFEFFF79BFE10BD70B5054604
:100750000E46FFF787FE7820FFF76FFEFFF75EFE7D
:100760004020FFF76AFEFFF759FE002406E0285DEF
:10077000FFF763FEFFF752FE601CC4B2B442F6DB23
:10078000FFF77EFE70BD704729B1064A92690243A9
:10079000044B9A6104E0034A92698243014B9A61D7
:1007A0007047000000100240704710B500F002F8DA
:1007B00010BD00000CB50020019000903348006887
:1007C00040F480303149086000BF3048006800F4D0
:1007D000003000900198401C0190009818B90198D1
:1007E000B0F5A06FF1D12948006800F4003010B1D5
:1007F0000120009001E0002000900098012843D1E2
:100800002348006840F0100021490860084600684D
:1008100020F0030008600846006840F0020008600D
:100820001A484068194948600846406848600846C8
:10083000406840F4806048600846406820F47C10BE
:1008400048600846406840F4E81048600846006880
:1008500040F08070086000BF0C48006800F0007035
:100860000028F9D00948406820F003000749486093
:100870000846406840F00200486000BF03484068F6
:1008800000F00C000828F9D10CBD00000010024057
:10089000002002407047000010B51348006840F087
:1008A00001001149086008464068104908400E4997
:1008B0004860084600680E4908400B490860084631
:1008C000006820F4802008600846406820F4FE009C
:1008D00048604FF41F008860FFF767FF4FF000602B
:1008E0000449086010BD0000001002400000FFF83D
:1008F000FFFFF6FE08ED00E000BFFEE7490050EA0A
:10090000C12018BF04204A0D18BF40F0010040F27A
:10091000FF72B2EB515F08BF40F00200012808BF30
:10092000052070472DE9F74F144694B00021C4E923
:1009300002111599079121F00045C9498D4206DC45
:100940001599C4E9000117B00020BDE8F08FC54932
:10095000DFF814A3A9423CDD0799C44E0029C44F17
:10096000C44A1599534619DD01F0CEF8554506D015
:10097000C14AC24B01F0C8F8C4E900010AE04FF0D7
:10098000D352BE4B01F0C0F832463B4601F0BCF8F2
:10099000C4E9000117B00120BDE8F08F00F042FC6F
:1009A000554506D0B44AB54B00F03CFCC4E9000103
:1009B0000AE04FF0D352B14B00F034FC32463B46D4
:1009C00000F030FCC4E9000117B04FF0FF30BDE883
:1009D000F08FAB49A942159978DB21F0004183469D
:1009E0008846A84AA84B00F0F5FE0022A74B00F06D
:1009F00019FC00F02BFE099000F085FE06460F461C
:100A00009C4A534600F0E6FE43465A4601F070F811
:100A100080468A46984A994B3046394600F0DAFEBD
:100A20002A0D01250B924246534601F061F8032D31
:100A3000C4E9000139D00B98C1F30A51401A05EB03
:100A400045111139814230DA9148C346784400EBB0
:100A50000510CDF80CA00C90D0E9002330463946A3
:100A600000F0B8FE02460B460491069058460399E2
:100A700001F04AF880468A4602460B4658460399DA
:100A800001F042F8049B069A01F03EF883460C9868
:100A900003913946D0E90223304600F09BFE5A46C6
:100AA000039B01F031F86D1CBDE707980028A2BF39
:100AB000099817B0BDE8F08F616881F0004161606E
:100AC000099817B04042BDE8F08FFFE784461598BB
:100AD000C1F31301C0F30A50A0F2F5304FEA6018D9
:100AE00000F01F06C6F1200013900020069007902A
:100AF00041F4801E05206D4676B1664A08EB000180
:100B00007A4452F8213002EB8101B3404A681399CC
:100B100022FA01F1194305E05F4908EB000279442C
:100B200051F82210A1FB0E27A1FB0C131A449A4284
:100B300034BF0123002303EB070A05EB8003D3E94D
:100B400001B70F448F4234BF0121002193448B44ED
:100B500011B1934502D903E0934501D2012100E090
:100B60000021C3E901B7514445F82010011EA0F14E
:100B70000100C1DC0298059F00F10050800F129027
:100B80000298DDE90356800000F0BDFD834628464B
:100B90000D9100F0CFFD6FF01D0201F08EFBCDE94D
:100BA0000E01304600F0C6FD6FF03D0201F085FBFE
:100BB00080468A46384600F0BDFD6FF05D0201F0C8
:100BC0007CFB074642465346119100F02BFBDDE9C2
:100BD0000E2300F027FB5A460D9B00F023FB002557
:100BE0000E465A4628460D9B00F08EFFDDE90E2387
:100BF00000F08AFF4246534600F086FF3A46119BBA
:100C000000F076FFDFF898A0244A534600F0E2FD9A
:100C100007468846234A244B3146284600F0DAFD31
:100C20003A46434600F0FEFA074688464FF0A8428F
:100C300053463146284600F0CDFD3A46434600F083
:100C4000F1FA159A12F0004F04D0129A81F0004187
:100C500052421292C4E90001129817B0BDE8F08F19
:100C6000FB21E93F7CD90240FB21F93F7370032E41
:100C70008A19A33B000040543163621A61B4D03D2D
:100C8000FB21394183C8C96D305FE43F0000E03F7C
:100C900028190000A418000086180000182D4454DC
:100CA000FB21F93D3326A611460B113C2DE9FF4DE2
:100CB00021F0004807460C46B8F1795F08DA00F0E9
:100CC000C5FC002801BF0020324904B0BDE8F08D0A
:100CD0003A4623461046194600F07CFD054602467A
:100CE0002D480E460B460621784400F05DF82A4652
:100CF000334600F06FFDDDE9022382468B4638461D
:100D0000214600F067FD04460F4652465B462846E2
:100D1000314600F05FFD22463B4600F0F5FE0746F7
:100D20008A464FF0FF322846314601F0C6FA1B4A88
:100D300090450ADA3A46534600F0E6FE04B0002237
:100D4000BDE8F04D134B00F0D3BE154A4245A8BF95
:100D5000A8F500154FF00004B8BF124D22462B46EF
:100D600000F0D2FE0646884622462B46002009495E
:100D700000F0CAFE04460D463A4653463046414608
:100D800000F0C2FE04B022462B46BDE8F04D00F054
:100D9000AFBE00000000F03F5C1600003333D33FCD
:100DA0000000E93F0000D23F2DE9F0414F1E00EB6B
:100DB000C7010446D1E9000115461E4637F0060278
:100DC0000DD02A46334600F005FD7F1E04EBC70315
:100DD000D3E9002300F026FA37F00602F1D1022F02
:100DE00025D0042F13D0062F18BFBDE8F0812A4666
:100DF000334600F0EFFCD4E90A2300F013FA2A4648
:100E0000334600F0E7FCD4E9082300F00BFA2A4649
:100E1000334600F0DFFCD4E9062300F003FA2A464B
:100E2000334600F0D7FCD4E9042300F0FBF92A464E
:100E3000334600F0CFFCD4E9022300F0F3F92A4650
:100E4000334600F0C7FCD4E90023BDE8F04100F0D0
:100E5000E9B900002DE9FF4D054621F0004084B0BE
:100E60000C46B0F1795F0BDA2846FFF747FD0428FE
:100E700008BF00F06FF8284608B02146BDE8F08DA5
:100E80002A460B46104600F0A5FC06460F462A46A9
:100E9000234600F09FFC804626488A4632463B4661
:100EA00005217844FFF780FF83461098029160B3D4
:100EB000214A224B4046514600F08CFCCDE900010E
:100EC0005A4640465146029B00F084FC82468846C2
:100ED000DDE906014FF0FF3201F0EFF952464346DB
:100EE00000F012FE32463B4600F074FCDDE90623BA
:100EF00000F00AFEDDE9002300F006FE08B02A46F5
:100F00002346BDE8F04D00F0F3BD0B465A4630468F
:100F1000394600F05FFC084A084B00F083F942466E
:100F2000534600F057FC08B02A462346BDE8F04D72
:100F300000F078B99A150000495555555555C5BF6B
:100F4000012201F0BAB9002213461046114600F002
:100F500025BA0000024A0020110701F0AEB90000D6
:100F600001FDFFFF00B5244B21F0004287B09A42FB
:100F7000DCBF0022134629DD204B9A4208D140B93C
:100F80004FF00100FFF71AF9FFF7DDFF07B000BDD2
:100F900003DBFFF7D5FF07B000BD02AAFFF7C2FCD5
:100FA00010F0030104BF0DF1080C9CE80F000DD0F8
:100FB000012001290ED0022914D00DF1080C009057
:100FC0009CE80F00FFF746FF07B000BDFFF76EFE7D
:100FD00007B000BD0DF1080C00909CE80F00FFF772
:100FE00039FF05E00DF1080C9CE80F00FFF75EFEED
:100FF00007B081F0004100BDFB21E93F0000F07F18
:101000008AB0FFF719FBFFF761FA4FF0000A5BE0C7
:10101000504600F08FFB00222F4BCDE9000100F07D
:10102000BDF9804600224FF0804300F0D3FB064616
:101030002A4A2B4B00F0CEFBCDE9020100F0A2F8CA
:101040000022284BCDE9040100F0C4FB0022264B0E
:10105000CDE9060100F0E6F8044600F027FB00F0B9
:10106000FF0B504600F066FB00221B4BCDE9000150
:1010700000F094F9804600224FF0804300F0AAFB74
:10108000164A174BCDE9020100F0A4FBCDE904019B
:10109000FFF768FF06460022124B00F09BFB002280
:1010A000124BCDE9060100F0BDF8044600F0FEFA4F
:1010B000C0B25B460246202108904020FFF71AFA92
:1010C0000AF114001FFA80FABAF5B47FA0DBFFF72B
:1010D00013FB00BFFEE70000008076401F85EB5148
:1010E000B81E094000003E40000040400000504053
:1010F0002DE9F04D07460E4600F0A0FC04460D46D3
:101100003A46334600F0F4FCDFF86CA0DFF86CB030
:101110001B4B0746884616F0004F4FF000020AD0DE
:1011200000F01CFB0AD900225B463846414600F01D
:101130004FFC1BD212E000F011FB08D200225346F4
:101140002046294600F0E0FC04460D460EE0002251
:101150005B463846414600F03BFC07D80022534628
:101160002046294600F05EF804460D4631462046EA
:1011700065F31E01BDE8F08D0000F03F0000E03F88
:101180000000E0BF00B5254B21F0004287B09A4235
:1011900003DC0022134600922BE0214B9A4208D137
:1011A00040B94FF00100FFF709F8FFF7CCFE07B098
:1011B00000BD03DBFFF7C4FE07B000BD02AAFFF7C6
:1011C000B1FB10F003014FF001000DD0012914D044
:1011D00002291AD00DF1080C9CE80F00FFF766FDFC
:1011E00007B081F0004100BD0DF1080C00909CE8B3
:1011F0000F00FFF72FFE07B000BD0DF1080C9CE8B3
:101200000F00FFF753FD07B000BD0DF1080C009073
:101210009CE80F00FFF71EFEE2E70000FB21E93F1C
:101220000000F07F10B591EA030F48BF83F0004340
:1012300000F17284841A71EB030C05D2121943EB8E
:101240000C03001B61EB0C01DFF824E14FEA1154A1
:10125000A4EB135C1EEA430F18BF9EEA445F73D0F1
:1012600023EA0E03DCF1200E21EA045143F480133B
:1012700032D322FA0CFE10EB0E0023FA0CFE41EBE7
:101280000E01CCF1200E03FA0EFE10EB0E0051F110
:101290000001B1F5801FCCF1200E32D201EB0451D8
:1012A00012FA0EF2BDE8104058BF7047401C38BF1C
:1012B0005FEA420218BF7047002814BF20F0010007
:1012C00041F100014FEA410313F5001F38BF704799
:1012D000A1F1C04100F076BB012A43EB0302ACF15F
:1012E000200CDCF11F0E32BF4FF0000E23FA0CF37E
:1012F00010EB030041EB0451B4EB115FD0D0A1EB34
:10130000045101F5801149085FEA300001EB0451F6
:101310000ED350F1000038BF12FA0EFE08D1BDE81E
:101320001040C9E7401C38BF5FEA4202CAD1C3E798
:10133000BDE810404FEA410313F5001F38BF704766
:10134000A1F1C04100F03EBB9EEA445F08D011EA23
:101350005E0FBDE8104004BF01F00041002070475F
:10136000BDE8104070B500F0DFFA00BF64FBBE3E80
:101370000000E0FF02494FF0000000F06CBF00BF2A
:101380000000F87F491058BFC1F140415B1058BFC1
:10139000C3F140438B42EFF3008070472DE9C04119
:1013A00030B4DFF8A0C23CEA111418BF3CEA1314B1
:1013B00000F0EC8081EA03051CEA111444EAD574BC
:1013C00018BF1CEA131500F0C780A4EB05044FF00A
:1013D000004545EAC12145EAC32341EA505143EAA9
:1013E000525304F17F74994204F500344FEAC0204F
:1013F0004FEAC22208BF904200F09C804FEA13657A
:101400000FF24016765D4FEA134506FB05F7C7F16C
:10141000807706FB07F74FEAD737A7FB03687642CA
:10142000C8F58038A7FB06CE38BFA8F1010807FB36
:1014300008E64FF0000EA6FB028CE6FB03CEDCF1C3
:10144000000CCEF1004E38BFAEF1010EA6FB0C58D9
:101450004FF000074FF00005E6FB0E87A1FB08C622
:10146000A0FB07CE16EB0E0645F10005E1FB076574
:1014700015F1E04E7EBFA4F580345FEA46066D416B
:1014800016F1800745F100054FEA17274FEA066677
:1014900047EA0567A6F1DE46B6F1805F4FEA1525FB
:1014A0001FD9384624F0010C05EBC471BCF1FE6F66
:1014B00001EB0C1102D8F0BCBDE8008124425CBFF6
:1014C00001F5801E9EEAC47F02D4F0BCBDE8008115
:1014D000244238D4F0BCA1F1C041BDE8004100F085
:1014E00071BA4FEAD22242EA43524FEAD323A7FB12
:1014F00002864FEAD02040EA415007FB03661EEA0D
:101500000E0F4FEAD12105FB026658BFA6EB00562D
:10151000B6EB00564FEA520E4EEAC37E18EB0E0EA3
:1015200056EB530EBDD518EB02085E417F1C55F1FA
:101530000005B6E74FF480154FF000074FF00006A6
:101540004FF00008ADE7F0BC4FF0000001F1C041E2
:1015500001F00041BDE8008111EA0C1F0CEA1315EF
:1015600000D00CE013EA0C1F00F025804FF00000C3
:10157000F0BC81EA030101F00041BDE80081F0BC4C
:10158000BDE8004181EA030100F01CBAF0BCBDE8EF
:10159000004170B500F0C8F9097EFC3E00F007B8C4
:1015A00081EA03014FF0000001F00041704781EA39
:1015B000030100F007BAF0BCBDE800414FF00000A5
:1015C00021497047FFFDFBF9F7F5F4F2F0EEEDEB82
:1015D000E9E8E6E4E3E1E0DEDDDBDAD8D7D5D4D331
:1015E000D1D0CFCDCCCBCAC8C7C6C5C4C2C1C0BF7D
:1015F000BEBDBCBBBAB9B8B7B6B5B4B3B2B1B0AF83
:10160000AEADACABAAA9A8A8A7A6A5A4A3A3A2A166
:10161000A09F9F9E9D9C9C9B9A9999989797969521
:1016200095949393929191908F8F8E8E8D8C8C8BBD
:101630008B8A898988888787868585848483838245
:10164000828181800000FF070000F87F4FEA41039C
:101650004FEA5353A3F58063D3F11E03C8BFD3F100
:10166000210C0CDD4FF0004242EAC12242EA505206
:1016700032FA03FC8CEAE17CACEBE1707047102B92
:10168000C4BF0020704703F5787CBCF1FF3F04D055
:101690006FF0004282EA2100704770B500F044F913
:1016A0004992248000207047F2E700004FEA11536E
:1016B000A3F58063D3F11E03A8BFD3F1200C08DB90
:1016C0004FF0004242EAC12252EA505232FA03F08D
:1016D000704709420BD4102BC4BF0020704703F59C
:1016E000787CBCF1FF3F05D04FF0FF3070474FF0E2
:1016F0000000704770B500F017F900BF49922480D0
:1017000000207047F0E710F0004248BF4042B0FAB6
:1017100080F310FA03F10AD0C3F11D0303F58063CF
:101720004FEA415002EB035202EBD12170474FF0D8
:1017300000007047B0FA80F310FA03F10AD0C3F149
:101740001D0303F580634FEA41504FEA035202EB59
:10175000D12170474FF000007047000051EA030CA0
:1017600017D41CF5801F58BFBCF5801F00F1068000
:10177000994218BF704708BF9042704707D711F5CC
:10178000801F58BF13F5801F19D4994270478942B2
:1017900070471CF5801F08D5BCF5801FF7D58B421C
:1017A00018BF704708BF824270474FF4001C1CEB03
:1017B000410F38BF1CEB430F01D28B42704770B50D
:1017C00000F0B2F8922449004FF000514FF08053DE
:1017D000FFF7D8BDDFF848C170B51CEA111E1EBF67
:1017E0001CEA13159EEA0C0F95EA0C0F00F06F80AF
:1017F00081EA030423EA4C134EEAD47E21EA4C1119
:1018000041F4801143F48013AE44A1FB024CA0FBD1
:101810000365AEF17F7E361955EB0C05A1FB034C39
:101820004CF10003A0FB021C16EB0C06654153F1C2
:101830000003094218BF46F0010613F4007F0BD1E4
:101840004FEA03314FEA0530340341EA155140EACB
:1018500016506FF003020AE04FEAC3214FEAC52099
:10186000F40241EA555140EA56506FF0020202EB91
:101870002E4201EB025585EACE710AD05FEA440C94
:1018800018BF24F0004450F1000041F1000120EAAB
:10189000D47040F2FE7C624500D270BDA84214BFF5
:1018A0004FF080444FF04044002E08BF0024BEF1AA
:1018B000806FA8BFA1F1C041BDE8704080F2828076
:1018C0004FF0000001F1C04101F0004170479EEA75
:1018D0000C0F0CEA131518BF95EA0C0F06D04FF049
:1018E000000081EA030E0EF0004170BD00F01CF80C
:1018F0008900013E00F007B800F009B84FEA430C38
:101900005FEA5C5C08D081EA030100F05BB84FEA53
:10191000410C5FEA5C5CF6D14FF000000149704772
:101920000000FF070000F87F0EF1020E2EF0030EFC
:101930005EF8046B364205D4012A43EB030515F526
:10194000001F12D8012841EB010C1CF5001F0CD818
:101950000ED14FEAD17C15F5001F0CEB4C0C0CF1AD
:10196000020C08BF4CEBD37C04E04FF0080C01E004
:101970004FEAD37C0CEB4C0526FA05F606F0070679
:10198000B6F1040C06D20EEB860CBDE870404CF0AC
:10199000010C6047DFE80CF0090B02024FF0004138
:1019A0004FF00000A1F5002170BD19461046012836
:1019B00051EB010418BFD4F5001484BF002001F0DE
:1019C000004170BD0808A0F500114FEA31017047D1
:1019D00053EA010C17D41CF5801F58BFBCF5801FBB
:1019E00000F106808B4218BF704708BF82427047E3
:1019F00007D713F5801F58BF11F5801F19D48B42EC
:101A000070479B4270471CF5801F08D5BCF5801FAE
:101A1000F7D5994218BF704708BF904270474FF4FE
:101A2000001C1CEB430F38BF1CEB410F01D2994245
:101A300070470FB40CBC03BCFFF7C1BE5FEA410C9A
:101A40005FEA5C5CACF580635B1C39D4D3F1340293
:101A500040F34580B2F1200314DA4FF0010C0CFA88
:101A600002FCACF101030340B3EB5C0220EA03008B
:101A700008BF10EA0C0F98BF704710EB0C0041F143
:101A8000000170470AD0C3F1200201FA02FC0128CC
:101A900021FA03F101FA03F14CF100004FF0010CBF
:101AA0000CFA03FCACF10103B0F1004F21EA030191
:101AB00008BF11EA0C0F4FF0000088BF6144704767
:101AC000B3F1FF3F28BF50EAC12C01F000414FF0B5
:101AD000000084BF41F07C5141F470017047B3F5C0
:101AE000806FB8BF704770B5FFF71EFF40DBB6BE12
:101AF00091EA030F10B581F000413FF59BAB83F0F5
:101B0000004300F009B8000010B591EA030F48BF88
:101B100083F000433FF58EAB841A71EB030C07D2C0
:101B200012198CF0004C43EB0C03001B61EB0C0111
:101B3000DFF8A4E14FEA1154A4EB135C1EEA430F53
:101B400018BF9EEA445F00F0B08023EA6E03524261
:101B500021EA0451C3EB6E0338BF5B1EDCF1200E9B
:101B600025D322FA0CFE10EB0E0043FA0CFE41EBDB
:101B70000E01CCF1200E03FA0EFE10EB0E0051F117
:101B80000001CCF1200E29D412FA0EF201EB04511F
:101B9000BDE8104058BF7047401C1CBFB2F1004F59
:101BA000704700280CBF491C20F00100704712EB61
:101BB000020E43EB030218BF4FF0010E4EEA420241
:101BC000ACF1200CDCF11E0E54D943FA0CFE10EBE4
:101BD0000E0051F1FF31CCF11E0ED5D50EF1010EE4
:101BE00012FA0EFE404141EB010101EB445C5FEA59
:101BF0005C5C10D910EBDE7001EB045138BFBEF114
:101C0000004FBDE8104018BF704700280CBF491CAA
:101C100020F00100704730D24FEAD42C11F50011AA
:101C200024F400641BD0B1FA81F20B3AA41AA41E6A
:101C3000D2F12003914030FA03F31943904001EBB5
:101C4000CC71002C01EB0451BDE81040A8BF7047D7
:101C500001F1C0414FF0000001F000417047B0FABF
:101C600080F310FA03F100D110BDE41A173C4805C7
:101C7000C90AE4E701EB045110BD491001EB04511E
:101C8000BDE810404FEA300002E04FF0000170471D
:101C90004A0008BF0042F8D0B2F5001F28BF7047C5
:101CA00001F000414FF0000070479EEA445F07D00A
:101CB00011EA5E0FBDE8104004BF0021002070470C
:101CC000BDE8104070B5FFF72FFE00BF40DFF63EC5
:101CD00083F00041104670470000E0FF43004FEAE8
:101CE000D30C4FEA3C0C43401FBF40070CF160513E
:101CF00013F0FE4F70471CF0006F03D100200CF072
:101D0000004170470CF0004343EA507010B540EAC0
:101D1000CC0000F0E0F900BF000000924FEA0001A3
:101D2000FFF750BE4FF000414FF00000A1F5002139
:101D30007047000090EA010F48BF81F0004100F1B8
:101D40001C82421A3CBF801A89184FEAD0524FF0C9
:101D50007F4C1CEA410FA2EBD15318BF9CEA026FE3
:101D600000F03B804FF0004C4CEA00204CEA01218F
:101D700021FA03FC10EB0C0C1ED202F1FF325FEAD9
:101D80001C2040EBC25038BF70471CF07F0F4FEA59
:101D9000400C18BFBCF17F4F38BF7047C3F1200320
:101DA000994008BF20F00100BCF17F4F38BF704759
:101DB000A0F1C04000F0D5B94FEA3C00000A40EB6A
:101DC000C25028BF1CF0FF0F4FEA400CE6D018BFEE
:101DD000BCF17F4F38BF7047EAE79CEA026F05D03D
:101DE00010EA5C0F08BF00F00040704710B500F02B
:101DF00072F900BF64FBBE3E4FF47F0C1CEAD012A8
:101E00001EBF1CEAD11392EA0C0F93EA0C0F00F0EC
:101E1000858090EA010F48BF42F4807240F4000CC4
:101E200041F400002CF07F4120F07F4000B581425A
:101E3000A2EB03020FF2081CACEB504EC0F1000005
:101E40009EF800E04FEA4E0E00FB0EFC38BF490042
:101E50004FEA2C1C02F5FA020CFB0EF34FEACE1EE1
:101E60004FEA112C4FEAC1210EEB635E42EB224296
:101E70000EFB0CFC4FEA1C5300FB03114FEA112C24
:101E80004FEA01310EFB0CFC4FEADC4C00FB0C115D
:101E9000C14228BF09184CEB03335DF804EB10EB8B
:101EA000410143EBC250B2F57C0F38BF704729D5D2
:101EB00012F0F00F1CBF00F1C04000F0004070476E
:101EC000008182838485868788898B8C8D8E8F9113
:101ED0009293959697999A9C9D9FA0A2A3A5A7A837
:101EE000AAACAEB0B2B3B5B7B9BCBEC0C2C5C7C963
:101EF000CCCED1D4D7D9DCDFE2E6E9ECF0F3F7FAC7
:101F0000FE0000004FEA400C0CF1807CBCF17E4FDB
:101F100028BF7047B0F1C04000F023B990EA010F2C
:101F20000CEAD11348BF42F48072624538BF634562
:101F300007D213F47F0F16D080EA010000F00040B2
:101F4000704710B500F0C7F8097EFC3E00F005B8F8
:101F500080EA010000F00040704780EA010000F0D4
:101F6000004000F0FEB812F47F0F04BF0248704733
:101F700080EA010000F0F5B80000C07F10F00041D9
:101F800048BF4042B0FA80F310FA03F2C3F19D0358
:101F90000BD051EAC35101EB1220530638BF7047F2
:101FA00000F1010008BF20F001007047B0FA80F393
:101FB00010FA03F2C3F19D030AD0D90501EB1220F8
:101FC000530638BF704700F1010008BF20F0010040
:101FD000704700004FF47F0C1CEAD0121EBF1CEAB1
:101FE000D11392EA0C0F93EA0C0F00F0478090EAAD
:101FF000010F48BF42F480724FF0004C4CEA0020C1
:102000004CEA012102EB0302A0FB0113A2F500023E
:10201000002918BF43F001035B0028BF4FEA3303D8
:1020200042EB22425FEA132C4CEBC2502EBFBCEBBA
:10203000436FB2F57C0F70474FEA036CBCF1004F61
:1020400008BF20F00100B2F57C0F38BF70470BD5F8
:1020500082F0FF0212F5803FC8BF704700F1C04018
:10206000D8BF00F00040704700F5000C5FEA4C0C50
:1020700048BF7047B0F1C04000F073B890EA010F5C
:102080000CEAD11348BF42F48072624538BF634501
:1020900004D280EA010000F00040704710B500F063
:1020A0001AF800BF8900013E00F007B800F009B837
:1020B0005FEA410C5FEA1C6C08D080EA010000F086
:1020C00050B85FEA400C5FEA1C6CF6D14FF000405C
:1020D000A0F5800070470EF1020E2EF0030E5EF8A0
:1020E000044B244204D44FEA4102B2F17F4F11D88D
:1020F0004FEA4003B3F17F4F0CD80ED14FEAD07CAA
:10210000B2F17F4F0CEB4C0C0CF1020C08BF4CEB06
:10211000D17C04E04FF0080C01E04FEAD17C0CEBDD
:102120004C0324FA03F404F00704B4F1040C06D2BF
:102130000EEB840CBDE810404CF0010C6047DFE86A
:102140000CF0070802024FF00040A0F5800010BD1F
:102150000846420018BFD2F1807288BF00F00040EC
:1021600010BDFF2141EAD050C005704790EA010F31
:1021700048BF81F000413FF5E4AD421A04D882F037
:102180000042A0EB020011444FEAD0524FF07F4CC6
:102190001CEA410FA2EBD15318BF9CEA026F4AD050
:1021A0004FF0004C4CEA00204CEA012121FA03FCDC
:1021B000B0EB0C0C0FD412F0FE0F36D05FEA4C00DF
:1021C0001DD5001240EBC25038BF70471CF03F0FC6
:1021D00018BF70470BE0A2F101025FEA1C2040EB40
:1021E000C25038BF70471CF07F0F18BF7047C3F153
:1021F0002003994014BF401E20F001007047800862
:102200004FEA122308BF7047B0FA80FCA2EB0C0221
:10221000CCF1280C60FA0CF093EA122F04BF00EB0B
:10222000C25070474FEAC3707047130A5FEADC1070
:1022300008BF7047F6E79CEA026F04D010EA5C0F13
:1022400008BF0020704710B5FFF745FF40DFF63E9E
:1022500081F0004070470CF00F03092B08BF0820E5
:1022600000F059800A2B0BD0082B18BF704708BF0D
:102270001CF0400F0AD04FF000004FF000017047F3
:102280001CF0400F18BF4FF0004070471CF0100FBB
:1022900008D020F0704300F07F4242EAD3014FEAB9
:1022A0004370704700F0604021F07F4242EA000234
:1022B00001F07F4040EA727070474FF0FF0C4CF421
:1022C000E06C1CEA11531CBF9CEA030C9445C2BF8E
:1022D000DA4201EB02517047002B0DD0BCF1000F28
:1022E0000FD0002A01F00041A4BF41F0E04141F0CD
:1022F0007F614FF00000704701F000414FF0000097
:10230000704750EA01334FF09B0C18BF4CF0806CC3
:102310007FF430A870471CF4801F11D01CF4E02F0C
:1023200003D06FEACC31490070474FF04050EFF3D3
:10233000008222F0704242EA000282F30088704775
:102340004FF00000704700004C5555555555A53FBE
:102350007751C1166CC156BF9015CB19A001FA3E3A
:10236000AD529C804F7E92BEC4B1B4BD9EEE213E64
:10237000D43888BEE9FAA8BD00004054FB21F93FDB
:102380003163621A61B4D03D0000601A61B4D03D7F
:102390007370032E8A19A33B0000002E8A19A33BF9
:1023A000C14920259A837B3900000000000000000D
:1023B0006E83F9A22915444ED15727FCC0DD34F5B0
:1023C000999562DB4190433CAB6351FE61C5BBDE36
:1023D0003A6E24B7E0D24D42EA2E49061C92D1094A
:1023E0001CEB1DFE3EA729B1F53582E88444BB2EC7
:1023F00026709CE9417E5FB439D69139F439538314
:102400008B5F849C3B28F9BDFF97F81F0F9805DE72
:102410008B112FEF1F6D0A5ACF7E366DB709CB2770
:10242000663F464F2DEA5F9EC7BA27757BF1E5EB05
:10243000F739073DEA92528AB15FFB6B085D8D1F49
:10244000A6F810111111813FD561C119A0012ABF51
:102450007DFEB157E31DC73EEB9C2B8AE6E55ABED5
:102460007CD5CF5A3AD9E53D7824000800000020F9
:08247000600A000028010008C9
:04000005080000ED02
:00000001FF
